{
  "contracts/PayCommitment.sol": {
    "PayCommitment": {
      "abi": [
        {
          "inputs": [
            {
              "internalType": "address",
              "name": "_tokenAddress",
              "type": "address"
            },
            {
              "internalType": "address",
              "name": "_groth16VerifierAddress",
              "type": "address"
            }
          ],
          "stateMutability": "nonpayable",
          "type": "constructor"
        },
        {
          "anonymous": false,
          "inputs": [
            {
              "indexed": false,
              "internalType": "address",
              "name": "receipient",
              "type": "address"
            },
            {
              "indexed": false,
              "internalType": "uint256",
              "name": "amount",
              "type": "uint256"
            },
            {
              "indexed": false,
              "internalType": "bytes32",
              "name": "commitment",
              "type": "bytes32"
            },
            {
              "indexed": false,
              "internalType": "bytes32",
              "name": "nullifierHash",
              "type": "bytes32"
            }
          ],
          "name": "LogClaim",
          "type": "event"
        },
        {
          "anonymous": false,
          "inputs": [
            {
              "indexed": false,
              "internalType": "address",
              "name": "depositor",
              "type": "address"
            },
            {
              "indexed": false,
              "internalType": "uint256",
              "name": "amount",
              "type": "uint256"
            },
            {
              "indexed": false,
              "internalType": "bytes32",
              "name": "commitment",
              "type": "bytes32"
            }
          ],
          "name": "LogDeposit",
          "type": "event"
        },
        {
          "inputs": [
            {
              "internalType": "uint256",
              "name": "_amount",
              "type": "uint256"
            },
            {
              "internalType": "bytes32",
              "name": "_commitment",
              "type": "bytes32"
            }
          ],
          "name": "depositERC20",
          "outputs": [],
          "stateMutability": "payable",
          "type": "function"
        },
        {
          "inputs": [],
          "name": "groth16VerifierAddress",
          "outputs": [
            {
              "internalType": "address",
              "name": "",
              "type": "address"
            }
          ],
          "stateMutability": "view",
          "type": "function"
        },
        {
          "inputs": [
            {
              "internalType": "bytes32",
              "name": "",
              "type": "bytes32"
            }
          ],
          "name": "nullifierHashes",
          "outputs": [
            {
              "internalType": "bool",
              "name": "",
              "type": "bool"
            }
          ],
          "stateMutability": "view",
          "type": "function"
        },
        {
          "inputs": [],
          "name": "tokenAddress",
          "outputs": [
            {
              "internalType": "address",
              "name": "",
              "type": "address"
            }
          ],
          "stateMutability": "view",
          "type": "function"
        },
        {
          "inputs": [
            {
              "internalType": "uint256[2]",
              "name": "_pA",
              "type": "uint256[2]"
            },
            {
              "internalType": "uint256[2][2]",
              "name": "_pB",
              "type": "uint256[2][2]"
            },
            {
              "internalType": "uint256[2]",
              "name": "_pC",
              "type": "uint256[2]"
            },
            {
              "internalType": "uint256[4]",
              "name": "_pubSignals",
              "type": "uint256[4]"
            }
          ],
          "name": "withdraw",
          "outputs": [],
          "stateMutability": "nonpayable",
          "type": "function"
        }
      ],
      "evm": {
        "bytecode": {
          "linkReferences": {},
          "object": "60806040523480156200001157600080fd5b506040516200177f3803806200177f83398181016040528101906200003791906200012a565b816000806101000a81548173ffffffffffffffffffffffffffffffffffffffff021916908373ffffffffffffffffffffffffffffffffffffffff16021790555080600160006101000a81548173ffffffffffffffffffffffffffffffffffffffff021916908373ffffffffffffffffffffffffffffffffffffffff160217905550505062000171565b600080fd5b600073ffffffffffffffffffffffffffffffffffffffff82169050919050565b6000620000f282620000c5565b9050919050565b6200010481620000e5565b81146200011057600080fd5b50565b6000815190506200012481620000f9565b92915050565b60008060408385031215620001445762000143620000c0565b5b6000620001548582860162000113565b9250506020620001678582860162000113565b9150509250929050565b6115fe80620001816000396000f3fe60806040526004361061004a5760003560e01c806317cc915c1461004f578063551c4fd21461008c5780639d76ea58146100b5578063a0e5f890146100e0578063a4ed8b701461010b575b600080fd5b34801561005b57600080fd5b5061007660048036038101906100719190610aa1565b610127565b6040516100839190610ae9565b60405180910390f35b34801561009857600080fd5b506100b360048036038101906100ae9190610b6f565b610147565b005b3480156100c157600080fd5b506100ca610533565b6040516100d79190610c19565b60405180910390f35b3480156100ec57600080fd5b506100f5610557565b6040516101029190610c19565b60405180910390f35b61012560048036038101906101209190610c6a565b61057d565b005b60036020528060005260406000206000915054906101000a900460ff1681565b600480101561018b576040517f08c379a000000000000000000000000000000000000000000000000000000000815260040161018290610d07565b60405180910390fd5b6000816000600481106101a1576101a0610d27565b5b602002013590506000826001600481106101be576101bd610d27565b5b602002013560001b90506000836002600481106101de576101dd610d27565b5b602002013560001b90506000846003600481106101fe576101fd610d27565b5b602002013590506003600083815260200190815260200160002060009054906101000a900460ff1615610266576040517f08c379a000000000000000000000000000000000000000000000000000000000815260040161025d90610da2565b60405180910390fd5b83600260008581526020019081526020016000205410156102bc576040517f08c379a00000000000000000000000000000000000000000000000000000000081526004016102b390610e34565b60405180910390fd5b600160009054906101000a900473ffffffffffffffffffffffffffffffffffffffff1673ffffffffffffffffffffffffffffffffffffffff16635fe8c13b898989896040518563ffffffff1660e01b815260040161031d9493929190610f3c565b602060405180830381865afa15801561033a573d6000803e3d6000fd5b505050506040513d601f19601f8201168201806040525081019061035e9190610faf565b61039d576040517f08c379a000000000000000000000000000000000000000000000000000000000815260040161039490611028565b60405180910390fd5b60016003600084815260200190815260200160002060006101000a81548160ff0219169083151502179055508360026000858152602001908152602001600020546103e89190611077565b600260008581526020019081526020016000208190555060008060009054906101000a900473ffffffffffffffffffffffffffffffffffffffff169050600063a9059cbb60e01b83876040516024016104429291906110ba565b604051602081830303815290604052907bffffffffffffffffffffffffffffffffffffffffffffffffffffffff19166020820180517bffffffffffffffffffffffffffffffffffffffffffffffffffffffff838183161783525050505090506104ea8160008054906101000a900473ffffffffffffffffffffffffffffffffffffffff1673ffffffffffffffffffffffffffffffffffffffff166108f490919063ffffffff16565b7fc8cb38a40fdf6dd994094b9612d7d15b619a7174baf2760411e6503813c075118387878760405161051f94939291906110f2565b60405180910390a150505050505050505050565b60008054906101000a900473ffffffffffffffffffffffffffffffffffffffff1681565b600160009054906101000a900473ffffffffffffffffffffffffffffffffffffffff1681565b600034146105c0576040517f08c379a00000000000000000000000000000000000000000000000000000000081526004016105b7906111a9565b60405180910390fd5b60008203156108f057600060026000838152602001908152602001600020541461061f576040517f08c379a000000000000000000000000000000000000000000000000000000000815260040161061690611215565b60405180910390fd5b60008060009054906101000a900473ffffffffffffffffffffffffffffffffffffffff16905060008173ffffffffffffffffffffffffffffffffffffffff166370a08231306040518263ffffffff1660e01b81526004016106809190610c19565b602060405180830381865afa15801561069d573d6000803e3d6000fd5b505050506040513d601f19601f820116820180604052508101906106c1919061124a565b905060006323b872dd60e01b3330876040516024016106e293929190611277565b604051602081830303815290604052907bffffffffffffffffffffffffffffffffffffffffffffffffffffffff19166020820180517bffffffffffffffffffffffffffffffffffffffffffffffffffffffff8381831617835250505050905061078a8160008054906101000a900473ffffffffffffffffffffffffffffffffffffffff1673ffffffffffffffffffffffffffffffffffffffff166108f490919063ffffffff16565b60008373ffffffffffffffffffffffffffffffffffffffff166370a08231306040518263ffffffff1660e01b81526004016107c59190610c19565b602060405180830381865afa1580156107e2573d6000803e3d6000fd5b505050506040513d601f19601f82011682018060405250810190610806919061124a565b90508281101561084b576040517f08c379a0000000000000000000000000000000000000000000000000000000008152600401610842906112fa565b60405180910390fd5b8583610857919061131a565b8114610898576040517f08c379a000000000000000000000000000000000000000000000000000000000815260040161088f9061139a565b60405180910390fd5b8560026000878152602001908152602001600020819055507f40a9cb3a9707d3a68091d8ef7ffd4158d01d0b2ad92b1e489abe8312dd5430233387876040516108e3939291906113ba565b60405180910390a1505050505b5050565b6108fd82610a53565b61093c576040517f08c379a00000000000000000000000000000000000000000000000000000000081526004016109339061143d565b60405180910390fd5b6000808373ffffffffffffffffffffffffffffffffffffffff168360405161096491906114ce565b6000604051808303816000865af19150503d80600081146109a1576040519150601f19603f3d011682016040523d82523d6000602084013e6109a6565b606091505b50915091508181906109ee576040517f08c379a00000000000000000000000000000000000000000000000000000000081526004016109e5919061153a565b60405180910390fd5b50600081511115610a4d5780806020019051810190610a0d9190610faf565b610a4c576040517f08c379a0000000000000000000000000000000000000000000000000000000008152600401610a43906115a8565b60405180910390fd5b5b50505050565b600080823b905060008111915050919050565b600080fd5b6000819050919050565b610a7e81610a6b565b8114610a8957600080fd5b50565b600081359050610a9b81610a75565b92915050565b600060208284031215610ab757610ab6610a66565b5b6000610ac584828501610a8c565b91505092915050565b60008115159050919050565b610ae381610ace565b82525050565b6000602082019050610afe6000830184610ada565b92915050565b600080fd5b600081905082602060020282011115610b2557610b24610b04565b5b92915050565b600081905082604060020282011115610b4757610b46610b04565b5b92915050565b600081905082602060040282011115610b6957610b68610b04565b5b92915050565b6000806000806101808587031215610b8a57610b89610a66565b5b6000610b9887828801610b09565b9450506040610ba987828801610b2b565b93505060c0610bba87828801610b09565b925050610100610bcc87828801610b4d565b91505092959194509250565b600073ffffffffffffffffffffffffffffffffffffffff82169050919050565b6000610c0382610bd8565b9050919050565b610c1381610bf8565b82525050565b6000602082019050610c2e6000830184610c0a565b92915050565b6000819050919050565b610c4781610c34565b8114610c5257600080fd5b50565b600081359050610c6481610c3e565b92915050565b60008060408385031215610c8157610c80610a66565b5b6000610c8f85828601610c55565b9250506020610ca085828601610a8c565b9150509250929050565b600082825260208201905092915050565b7f696e636f7272656374207075626c6963496e707574206c656e67746800000000600082015250565b6000610cf1601c83610caa565b9150610cfc82610cbb565b602082019050919050565b60006020820190508181036000830152610d2081610ce4565b9050919050565b7f4e487b7100000000000000000000000000000000000000000000000000000000600052603260045260246000fd5b7f546865206e6f746520686173206265656e20616c7265616479207370656e7400600082015250565b6000610d8c601f83610caa565b9150610d9782610d56565b602082019050919050565b60006020820190508181036000830152610dbb81610d7f565b9050919050565b7f6e6f20656e6f7567682072656d61696e696e6720616d6f756e7420746f20636c60008201527f61696d0000000000000000000000000000000000000000000000000000000000602082015250565b6000610e1e602383610caa565b9150610e2982610dc2565b604082019050919050565b60006020820190508181036000830152610e4d81610e11565b9050919050565b82818337505050565b610e6960408383610e54565b5050565b600060029050919050565b600081905092915050565b6000819050919050565b610e9960408383610e54565b5050565b6000610ea98383610e8d565b60408301905092915050565b600082905092915050565b6000604082019050919050565b610ed681610e6d565b610ee08184610e78565b9250610eeb82610e83565b8060005b83811015610f2457610f018284610eb5565b610f0b8782610e9d565b9650610f1683610ec0565b925050600181019050610eef565b505050505050565b610f3860808383610e54565b5050565b600061018082019050610f526000830187610e5d565b610f5f6040830186610ecd565b610f6c60c0830185610e5d565b610f7a610100830184610f2c565b95945050505050565b610f8c81610ace565b8114610f9757600080fd5b50565b600081519050610fa981610f83565b92915050565b600060208284031215610fc557610fc4610a66565b5b6000610fd384828501610f9a565b91505092915050565b7f67726f7468313620766572696669636174696f6e206661696c00000000000000600082015250565b6000611012601983610caa565b915061101d82610fdc565b602082019050919050565b6000602082019050818103600083015261104181611005565b9050919050565b7f4e487b7100000000000000000000000000000000000000000000000000000000600052601160045260246000fd5b600061108282610c34565b915061108d83610c34565b92508282039050818111156110a5576110a4611048565b5b92915050565b6110b481610c34565b82525050565b60006040820190506110cf6000830185610c0a565b6110dc60208301846110ab565b9392505050565b6110ec81610a6b565b82525050565b60006080820190506111076000830187610c0a565b61111460208301866110ab565b61112160408301856110e3565b61112e60608301846110e3565b95945050505050565b7f4554482076616c756520697320737570706f73656420746f206265203020666f60008201527f72204552433230206465706f7369740000000000000000000000000000000000602082015250565b6000611193602f83610caa565b915061119e82611137565b604082019050919050565b600060208201905081810360008301526111c281611186565b9050919050565b7f636f6d6d69746d656e7420657869737473000000000000000000000000000000600082015250565b60006111ff601183610caa565b915061120a826111c9565b602082019050919050565b6000602082019050818103600083015261122e816111f2565b9050919050565b60008151905061124481610c3e565b92915050565b6000602082840312156112605761125f610a66565b5b600061126e84828501611235565b91505092915050565b600060608201905061128c6000830186610c0a565b6112996020830185610c0a565b6112a660408301846110ab565b949350505050565b7f4f564552464c4f57000000000000000000000000000000000000000000000000600082015250565b60006112e4600883610caa565b91506112ef826112ae565b602082019050919050565b60006020820190508181036000830152611313816112d7565b9050919050565b600061132582610c34565b915061133083610c34565b925082820190508082111561134857611347611048565b5b92915050565b7f494e434f52524543545f414d4f554e545f5452414e5346455252454400000000600082015250565b6000611384601c83610caa565b915061138f8261134e565b602082019050919050565b600060208201905081810360008301526113b381611377565b9050919050565b60006060820190506113cf6000830186610c0a565b6113dc60208301856110ab565b6113e960408301846110e3565b949350505050565b7f4241445f544f4b454e5f41444452455353000000000000000000000000000000600082015250565b6000611427601183610caa565b9150611432826113f1565b602082019050919050565b600060208201905081810360008301526114568161141a565b9050919050565b600081519050919050565b600081905092915050565b60005b83811015611491578082015181840152602081019050611476565b60008484015250505050565b60006114a88261145d565b6114b28185611468565b93506114c2818560208601611473565b80840191505092915050565b60006114da828461149d565b915081905092915050565b600081519050919050565b6000601f19601f8301169050919050565b600061150c826114e5565b6115168185610caa565b9350611526818560208601611473565b61152f816114f0565b840191505092915050565b600060208201905081810360008301526115548184611501565b905092915050565b7f544f4b454e5f4f5045524154494f4e5f4641494c454400000000000000000000600082015250565b6000611592601683610caa565b915061159d8261155c565b602082019050919050565b600060208201905081810360008301526115c181611585565b905091905056fea2646970667358221220b389489fecdbccc95a3bb70e3969c3ae229509a7e293fcfd9f4160611a2b6fe364736f6c63430008180033",
          "opcodes": "PUSH1 0x80 PUSH1 0x40 MSTORE CALLVALUE DUP1 ISZERO PUSH3 0x11 JUMPI PUSH1 0x0 DUP1 REVERT JUMPDEST POP PUSH1 0x40 MLOAD PUSH3 0x177F CODESIZE SUB DUP1 PUSH3 0x177F DUP4 CODECOPY DUP2 DUP2 ADD PUSH1 0x40 MSTORE DUP2 ADD SWAP1 PUSH3 0x37 SWAP2 SWAP1 PUSH3 0x12A JUMP JUMPDEST DUP2 PUSH1 0x0 DUP1 PUSH2 0x100 EXP DUP2 SLOAD DUP2 PUSH20 0xFFFFFFFFFFFFFFFFFFFFFFFFFFFFFFFFFFFFFFFF MUL NOT AND SWAP1 DUP4 PUSH20 0xFFFFFFFFFFFFFFFFFFFFFFFFFFFFFFFFFFFFFFFF AND MUL OR SWAP1 SSTORE POP DUP1 PUSH1 0x1 PUSH1 0x0 PUSH2 0x100 EXP DUP2 SLOAD DUP2 PUSH20 0xFFFFFFFFFFFFFFFFFFFFFFFFFFFFFFFFFFFFFFFF MUL NOT AND SWAP1 DUP4 PUSH20 0xFFFFFFFFFFFFFFFFFFFFFFFFFFFFFFFFFFFFFFFF AND MUL OR SWAP1 SSTORE POP POP POP PUSH3 0x171 JUMP JUMPDEST PUSH1 0x0 DUP1 REVERT JUMPDEST PUSH1 0x0 PUSH20 0xFFFFFFFFFFFFFFFFFFFFFFFFFFFFFFFFFFFFFFFF DUP3 AND SWAP1 POP SWAP2 SWAP1 POP JUMP JUMPDEST PUSH1 0x0 PUSH3 0xF2 DUP3 PUSH3 0xC5 JUMP JUMPDEST SWAP1 POP SWAP2 SWAP1 POP JUMP JUMPDEST PUSH3 0x104 DUP2 PUSH3 0xE5 JUMP JUMPDEST DUP2 EQ PUSH3 0x110 JUMPI PUSH1 0x0 DUP1 REVERT JUMPDEST POP JUMP JUMPDEST PUSH1 0x0 DUP2 MLOAD SWAP1 POP PUSH3 0x124 DUP2 PUSH3 0xF9 JUMP JUMPDEST SWAP3 SWAP2 POP POP JUMP JUMPDEST PUSH1 0x0 DUP1 PUSH1 0x40 DUP4 DUP6 SUB SLT ISZERO PUSH3 0x144 JUMPI PUSH3 0x143 PUSH3 0xC0 JUMP JUMPDEST JUMPDEST PUSH1 0x0 PUSH3 0x154 DUP6 DUP3 DUP7 ADD PUSH3 0x113 JUMP JUMPDEST SWAP3 POP POP PUSH1 0x20 PUSH3 0x167 DUP6 DUP3 DUP7 ADD PUSH3 0x113 JUMP JUMPDEST SWAP2 POP POP SWAP3 POP SWAP3 SWAP1 POP JUMP JUMPDEST PUSH2 0x15FE DUP1 PUSH3 0x181 PUSH1 0x0 CODECOPY PUSH1 0x0 RETURN INVALID PUSH1 0x80 PUSH1 0x40 MSTORE PUSH1 0x4 CALLDATASIZE LT PUSH2 0x4A JUMPI PUSH1 0x0 CALLDATALOAD PUSH1 0xE0 SHR DUP1 PUSH4 0x17CC915C EQ PUSH2 0x4F JUMPI DUP1 PUSH4 0x551C4FD2 EQ PUSH2 0x8C JUMPI DUP1 PUSH4 0x9D76EA58 EQ PUSH2 0xB5 JUMPI DUP1 PUSH4 0xA0E5F890 EQ PUSH2 0xE0 JUMPI DUP1 PUSH4 0xA4ED8B70 EQ PUSH2 0x10B JUMPI JUMPDEST PUSH1 0x0 DUP1 REVERT JUMPDEST CALLVALUE DUP1 ISZERO PUSH2 0x5B JUMPI PUSH1 0x0 DUP1 REVERT JUMPDEST POP PUSH2 0x76 PUSH1 0x4 DUP1 CALLDATASIZE SUB DUP2 ADD SWAP1 PUSH2 0x71 SWAP2 SWAP1 PUSH2 0xAA1 JUMP JUMPDEST PUSH2 0x127 JUMP JUMPDEST PUSH1 0x40 MLOAD PUSH2 0x83 SWAP2 SWAP1 PUSH2 0xAE9 JUMP JUMPDEST PUSH1 0x40 MLOAD DUP1 SWAP2 SUB SWAP1 RETURN JUMPDEST CALLVALUE DUP1 ISZERO PUSH2 0x98 JUMPI PUSH1 0x0 DUP1 REVERT JUMPDEST POP PUSH2 0xB3 PUSH1 0x4 DUP1 CALLDATASIZE SUB DUP2 ADD SWAP1 PUSH2 0xAE SWAP2 SWAP1 PUSH2 0xB6F JUMP JUMPDEST PUSH2 0x147 JUMP JUMPDEST STOP JUMPDEST CALLVALUE DUP1 ISZERO PUSH2 0xC1 JUMPI PUSH1 0x0 DUP1 REVERT JUMPDEST POP PUSH2 0xCA PUSH2 0x533 JUMP JUMPDEST PUSH1 0x40 MLOAD PUSH2 0xD7 SWAP2 SWAP1 PUSH2 0xC19 JUMP JUMPDEST PUSH1 0x40 MLOAD DUP1 SWAP2 SUB SWAP1 RETURN JUMPDEST CALLVALUE DUP1 ISZERO PUSH2 0xEC JUMPI PUSH1 0x0 DUP1 REVERT JUMPDEST POP PUSH2 0xF5 PUSH2 0x557 JUMP JUMPDEST PUSH1 0x40 MLOAD PUSH2 0x102 SWAP2 SWAP1 PUSH2 0xC19 JUMP JUMPDEST PUSH1 0x40 MLOAD DUP1 SWAP2 SUB SWAP1 RETURN JUMPDEST PUSH2 0x125 PUSH1 0x4 DUP1 CALLDATASIZE SUB DUP2 ADD SWAP1 PUSH2 0x120 SWAP2 SWAP1 PUSH2 0xC6A JUMP JUMPDEST PUSH2 0x57D JUMP JUMPDEST STOP JUMPDEST PUSH1 0x3 PUSH1 0x20 MSTORE DUP1 PUSH1 0x0 MSTORE PUSH1 0x40 PUSH1 0x0 KECCAK256 PUSH1 0x0 SWAP2 POP SLOAD SWAP1 PUSH2 0x100 EXP SWAP1 DIV PUSH1 0xFF AND DUP2 JUMP JUMPDEST PUSH1 0x4 DUP1 LT ISZERO PUSH2 0x18B JUMPI PUSH1 0x40 MLOAD PUSH32 0x8C379A000000000000000000000000000000000000000000000000000000000 DUP2 MSTORE PUSH1 0x4 ADD PUSH2 0x182 SWAP1 PUSH2 0xD07 JUMP JUMPDEST PUSH1 0x40 MLOAD DUP1 SWAP2 SUB SWAP1 REVERT JUMPDEST PUSH1 0x0 DUP2 PUSH1 0x0 PUSH1 0x4 DUP2 LT PUSH2 0x1A1 JUMPI PUSH2 0x1A0 PUSH2 0xD27 JUMP JUMPDEST JUMPDEST PUSH1 0x20 MUL ADD CALLDATALOAD SWAP1 POP PUSH1 0x0 DUP3 PUSH1 0x1 PUSH1 0x4 DUP2 LT PUSH2 0x1BE JUMPI PUSH2 0x1BD PUSH2 0xD27 JUMP JUMPDEST JUMPDEST PUSH1 0x20 MUL ADD CALLDATALOAD PUSH1 0x0 SHL SWAP1 POP PUSH1 0x0 DUP4 PUSH1 0x2 PUSH1 0x4 DUP2 LT PUSH2 0x1DE JUMPI PUSH2 0x1DD PUSH2 0xD27 JUMP JUMPDEST JUMPDEST PUSH1 0x20 MUL ADD CALLDATALOAD PUSH1 0x0 SHL SWAP1 POP PUSH1 0x0 DUP5 PUSH1 0x3 PUSH1 0x4 DUP2 LT PUSH2 0x1FE JUMPI PUSH2 0x1FD PUSH2 0xD27 JUMP JUMPDEST JUMPDEST PUSH1 0x20 MUL ADD CALLDATALOAD SWAP1 POP PUSH1 0x3 PUSH1 0x0 DUP4 DUP2 MSTORE PUSH1 0x20 ADD SWAP1 DUP2 MSTORE PUSH1 0x20 ADD PUSH1 0x0 KECCAK256 PUSH1 0x0 SWAP1 SLOAD SWAP1 PUSH2 0x100 EXP SWAP1 DIV PUSH1 0xFF AND ISZERO PUSH2 0x266 JUMPI PUSH1 0x40 MLOAD PUSH32 0x8C379A000000000000000000000000000000000000000000000000000000000 DUP2 MSTORE PUSH1 0x4 ADD PUSH2 0x25D SWAP1 PUSH2 0xDA2 JUMP JUMPDEST PUSH1 0x40 MLOAD DUP1 SWAP2 SUB SWAP1 REVERT JUMPDEST DUP4 PUSH1 0x2 PUSH1 0x0 DUP6 DUP2 MSTORE PUSH1 0x20 ADD SWAP1 DUP2 MSTORE PUSH1 0x20 ADD PUSH1 0x0 KECCAK256 SLOAD LT ISZERO PUSH2 0x2BC JUMPI PUSH1 0x40 MLOAD PUSH32 0x8C379A000000000000000000000000000000000000000000000000000000000 DUP2 MSTORE PUSH1 0x4 ADD PUSH2 0x2B3 SWAP1 PUSH2 0xE34 JUMP JUMPDEST PUSH1 0x40 MLOAD DUP1 SWAP2 SUB SWAP1 REVERT JUMPDEST PUSH1 0x1 PUSH1 0x0 SWAP1 SLOAD SWAP1 PUSH2 0x100 EXP SWAP1 DIV PUSH20 0xFFFFFFFFFFFFFFFFFFFFFFFFFFFFFFFFFFFFFFFF AND PUSH20 0xFFFFFFFFFFFFFFFFFFFFFFFFFFFFFFFFFFFFFFFF AND PUSH4 0x5FE8C13B DUP10 DUP10 DUP10 DUP10 PUSH1 0x40 MLOAD DUP6 PUSH4 0xFFFFFFFF AND PUSH1 0xE0 SHL DUP2 MSTORE PUSH1 0x4 ADD PUSH2 0x31D SWAP5 SWAP4 SWAP3 SWAP2 SWAP1 PUSH2 0xF3C JUMP JUMPDEST PUSH1 0x20 PUSH1 0x40 MLOAD DUP1 DUP4 SUB DUP2 DUP7 GAS STATICCALL ISZERO DUP1 ISZERO PUSH2 0x33A JUMPI RETURNDATASIZE PUSH1 0x0 DUP1 RETURNDATACOPY RETURNDATASIZE PUSH1 0x0 REVERT JUMPDEST POP POP POP POP PUSH1 0x40 MLOAD RETURNDATASIZE PUSH1 0x1F NOT PUSH1 0x1F DUP3 ADD AND DUP3 ADD DUP1 PUSH1 0x40 MSTORE POP DUP2 ADD SWAP1 PUSH2 0x35E SWAP2 SWAP1 PUSH2 0xFAF JUMP JUMPDEST PUSH2 0x39D JUMPI PUSH1 0x40 MLOAD PUSH32 0x8C379A000000000000000000000000000000000000000000000000000000000 DUP2 MSTORE PUSH1 0x4 ADD PUSH2 0x394 SWAP1 PUSH2 0x1028 JUMP JUMPDEST PUSH1 0x40 MLOAD DUP1 SWAP2 SUB SWAP1 REVERT JUMPDEST PUSH1 0x1 PUSH1 0x3 PUSH1 0x0 DUP5 DUP2 MSTORE PUSH1 0x20 ADD SWAP1 DUP2 MSTORE PUSH1 0x20 ADD PUSH1 0x0 KECCAK256 PUSH1 0x0 PUSH2 0x100 EXP DUP2 SLOAD DUP2 PUSH1 0xFF MUL NOT AND SWAP1 DUP4 ISZERO ISZERO MUL OR SWAP1 SSTORE POP DUP4 PUSH1 0x2 PUSH1 0x0 DUP6 DUP2 MSTORE PUSH1 0x20 ADD SWAP1 DUP2 MSTORE PUSH1 0x20 ADD PUSH1 0x0 KECCAK256 SLOAD PUSH2 0x3E8 SWAP2 SWAP1 PUSH2 0x1077 JUMP JUMPDEST PUSH1 0x2 PUSH1 0x0 DUP6 DUP2 MSTORE PUSH1 0x20 ADD SWAP1 DUP2 MSTORE PUSH1 0x20 ADD PUSH1 0x0 KECCAK256 DUP2 SWAP1 SSTORE POP PUSH1 0x0 DUP1 PUSH1 0x0 SWAP1 SLOAD SWAP1 PUSH2 0x100 EXP SWAP1 DIV PUSH20 0xFFFFFFFFFFFFFFFFFFFFFFFFFFFFFFFFFFFFFFFF AND SWAP1 POP PUSH1 0x0 PUSH4 0xA9059CBB PUSH1 0xE0 SHL DUP4 DUP8 PUSH1 0x40 MLOAD PUSH1 0x24 ADD PUSH2 0x442 SWAP3 SWAP2 SWAP1 PUSH2 0x10BA JUMP JUMPDEST PUSH1 0x40 MLOAD PUSH1 0x20 DUP2 DUP4 SUB SUB DUP2 MSTORE SWAP1 PUSH1 0x40 MSTORE SWAP1 PUSH28 0xFFFFFFFFFFFFFFFFFFFFFFFFFFFFFFFFFFFFFFFFFFFFFFFFFFFFFFFF NOT AND PUSH1 0x20 DUP3 ADD DUP1 MLOAD PUSH28 0xFFFFFFFFFFFFFFFFFFFFFFFFFFFFFFFFFFFFFFFFFFFFFFFFFFFFFFFF DUP4 DUP2 DUP4 AND OR DUP4 MSTORE POP POP POP POP SWAP1 POP PUSH2 0x4EA DUP2 PUSH1 0x0 DUP1 SLOAD SWAP1 PUSH2 0x100 EXP SWAP1 DIV PUSH20 0xFFFFFFFFFFFFFFFFFFFFFFFFFFFFFFFFFFFFFFFF AND PUSH20 0xFFFFFFFFFFFFFFFFFFFFFFFFFFFFFFFFFFFFFFFF AND PUSH2 0x8F4 SWAP1 SWAP2 SWAP1 PUSH4 0xFFFFFFFF AND JUMP JUMPDEST PUSH32 0xC8CB38A40FDF6DD994094B9612D7D15B619A7174BAF2760411E6503813C07511 DUP4 DUP8 DUP8 DUP8 PUSH1 0x40 MLOAD PUSH2 0x51F SWAP5 SWAP4 SWAP3 SWAP2 SWAP1 PUSH2 0x10F2 JUMP JUMPDEST PUSH1 0x40 MLOAD DUP1 SWAP2 SUB SWAP1 LOG1 POP POP POP POP POP POP POP POP POP POP JUMP JUMPDEST PUSH1 0x0 DUP1 SLOAD SWAP1 PUSH2 0x100 EXP SWAP1 DIV PUSH20 0xFFFFFFFFFFFFFFFFFFFFFFFFFFFFFFFFFFFFFFFF AND DUP2 JUMP JUMPDEST PUSH1 0x1 PUSH1 0x0 SWAP1 SLOAD SWAP1 PUSH2 0x100 EXP SWAP1 DIV PUSH20 0xFFFFFFFFFFFFFFFFFFFFFFFFFFFFFFFFFFFFFFFF AND DUP2 JUMP JUMPDEST PUSH1 0x0 CALLVALUE EQ PUSH2 0x5C0 JUMPI PUSH1 0x40 MLOAD PUSH32 0x8C379A000000000000000000000000000000000000000000000000000000000 DUP2 MSTORE PUSH1 0x4 ADD PUSH2 0x5B7 SWAP1 PUSH2 0x11A9 JUMP JUMPDEST PUSH1 0x40 MLOAD DUP1 SWAP2 SUB SWAP1 REVERT JUMPDEST PUSH1 0x0 DUP3 SUB ISZERO PUSH2 0x8F0 JUMPI PUSH1 0x0 PUSH1 0x2 PUSH1 0x0 DUP4 DUP2 MSTORE PUSH1 0x20 ADD SWAP1 DUP2 MSTORE PUSH1 0x20 ADD PUSH1 0x0 KECCAK256 SLOAD EQ PUSH2 0x61F JUMPI PUSH1 0x40 MLOAD PUSH32 0x8C379A000000000000000000000000000000000000000000000000000000000 DUP2 MSTORE PUSH1 0x4 ADD PUSH2 0x616 SWAP1 PUSH2 0x1215 JUMP JUMPDEST PUSH1 0x40 MLOAD DUP1 SWAP2 SUB SWAP1 REVERT JUMPDEST PUSH1 0x0 DUP1 PUSH1 0x0 SWAP1 SLOAD SWAP1 PUSH2 0x100 EXP SWAP1 DIV PUSH20 0xFFFFFFFFFFFFFFFFFFFFFFFFFFFFFFFFFFFFFFFF AND SWAP1 POP PUSH1 0x0 DUP2 PUSH20 0xFFFFFFFFFFFFFFFFFFFFFFFFFFFFFFFFFFFFFFFF AND PUSH4 0x70A08231 ADDRESS PUSH1 0x40 MLOAD DUP3 PUSH4 0xFFFFFFFF AND PUSH1 0xE0 SHL DUP2 MSTORE PUSH1 0x4 ADD PUSH2 0x680 SWAP2 SWAP1 PUSH2 0xC19 JUMP JUMPDEST PUSH1 0x20 PUSH1 0x40 MLOAD DUP1 DUP4 SUB DUP2 DUP7 GAS STATICCALL ISZERO DUP1 ISZERO PUSH2 0x69D JUMPI RETURNDATASIZE PUSH1 0x0 DUP1 RETURNDATACOPY RETURNDATASIZE PUSH1 0x0 REVERT JUMPDEST POP POP POP POP PUSH1 0x40 MLOAD RETURNDATASIZE PUSH1 0x1F NOT PUSH1 0x1F DUP3 ADD AND DUP3 ADD DUP1 PUSH1 0x40 MSTORE POP DUP2 ADD SWAP1 PUSH2 0x6C1 SWAP2 SWAP1 PUSH2 0x124A JUMP JUMPDEST SWAP1 POP PUSH1 0x0 PUSH4 0x23B872DD PUSH1 0xE0 SHL CALLER ADDRESS DUP8 PUSH1 0x40 MLOAD PUSH1 0x24 ADD PUSH2 0x6E2 SWAP4 SWAP3 SWAP2 SWAP1 PUSH2 0x1277 JUMP JUMPDEST PUSH1 0x40 MLOAD PUSH1 0x20 DUP2 DUP4 SUB SUB DUP2 MSTORE SWAP1 PUSH1 0x40 MSTORE SWAP1 PUSH28 0xFFFFFFFFFFFFFFFFFFFFFFFFFFFFFFFFFFFFFFFFFFFFFFFFFFFFFFFF NOT AND PUSH1 0x20 DUP3 ADD DUP1 MLOAD PUSH28 0xFFFFFFFFFFFFFFFFFFFFFFFFFFFFFFFFFFFFFFFFFFFFFFFFFFFFFFFF DUP4 DUP2 DUP4 AND OR DUP4 MSTORE POP POP POP POP SWAP1 POP PUSH2 0x78A DUP2 PUSH1 0x0 DUP1 SLOAD SWAP1 PUSH2 0x100 EXP SWAP1 DIV PUSH20 0xFFFFFFFFFFFFFFFFFFFFFFFFFFFFFFFFFFFFFFFF AND PUSH20 0xFFFFFFFFFFFFFFFFFFFFFFFFFFFFFFFFFFFFFFFF AND PUSH2 0x8F4 SWAP1 SWAP2 SWAP1 PUSH4 0xFFFFFFFF AND JUMP JUMPDEST PUSH1 0x0 DUP4 PUSH20 0xFFFFFFFFFFFFFFFFFFFFFFFFFFFFFFFFFFFFFFFF AND PUSH4 0x70A08231 ADDRESS PUSH1 0x40 MLOAD DUP3 PUSH4 0xFFFFFFFF AND PUSH1 0xE0 SHL DUP2 MSTORE PUSH1 0x4 ADD PUSH2 0x7C5 SWAP2 SWAP1 PUSH2 0xC19 JUMP JUMPDEST PUSH1 0x20 PUSH1 0x40 MLOAD DUP1 DUP4 SUB DUP2 DUP7 GAS STATICCALL ISZERO DUP1 ISZERO PUSH2 0x7E2 JUMPI RETURNDATASIZE PUSH1 0x0 DUP1 RETURNDATACOPY RETURNDATASIZE PUSH1 0x0 REVERT JUMPDEST POP POP POP POP PUSH1 0x40 MLOAD RETURNDATASIZE PUSH1 0x1F NOT PUSH1 0x1F DUP3 ADD AND DUP3 ADD DUP1 PUSH1 0x40 MSTORE POP DUP2 ADD SWAP1 PUSH2 0x806 SWAP2 SWAP1 PUSH2 0x124A JUMP JUMPDEST SWAP1 POP DUP3 DUP2 LT ISZERO PUSH2 0x84B JUMPI PUSH1 0x40 MLOAD PUSH32 0x8C379A000000000000000000000000000000000000000000000000000000000 DUP2 MSTORE PUSH1 0x4 ADD PUSH2 0x842 SWAP1 PUSH2 0x12FA JUMP JUMPDEST PUSH1 0x40 MLOAD DUP1 SWAP2 SUB SWAP1 REVERT JUMPDEST DUP6 DUP4 PUSH2 0x857 SWAP2 SWAP1 PUSH2 0x131A JUMP JUMPDEST DUP2 EQ PUSH2 0x898 JUMPI PUSH1 0x40 MLOAD PUSH32 0x8C379A000000000000000000000000000000000000000000000000000000000 DUP2 MSTORE PUSH1 0x4 ADD PUSH2 0x88F SWAP1 PUSH2 0x139A JUMP JUMPDEST PUSH1 0x40 MLOAD DUP1 SWAP2 SUB SWAP1 REVERT JUMPDEST DUP6 PUSH1 0x2 PUSH1 0x0 DUP8 DUP2 MSTORE PUSH1 0x20 ADD SWAP1 DUP2 MSTORE PUSH1 0x20 ADD PUSH1 0x0 KECCAK256 DUP2 SWAP1 SSTORE POP PUSH32 0x40A9CB3A9707D3A68091D8EF7FFD4158D01D0B2AD92B1E489ABE8312DD543023 CALLER DUP8 DUP8 PUSH1 0x40 MLOAD PUSH2 0x8E3 SWAP4 SWAP3 SWAP2 SWAP1 PUSH2 0x13BA JUMP JUMPDEST PUSH1 0x40 MLOAD DUP1 SWAP2 SUB SWAP1 LOG1 POP POP POP POP JUMPDEST POP POP JUMP JUMPDEST PUSH2 0x8FD DUP3 PUSH2 0xA53 JUMP JUMPDEST PUSH2 0x93C JUMPI PUSH1 0x40 MLOAD PUSH32 0x8C379A000000000000000000000000000000000000000000000000000000000 DUP2 MSTORE PUSH1 0x4 ADD PUSH2 0x933 SWAP1 PUSH2 0x143D JUMP JUMPDEST PUSH1 0x40 MLOAD DUP1 SWAP2 SUB SWAP1 REVERT JUMPDEST PUSH1 0x0 DUP1 DUP4 PUSH20 0xFFFFFFFFFFFFFFFFFFFFFFFFFFFFFFFFFFFFFFFF AND DUP4 PUSH1 0x40 MLOAD PUSH2 0x964 SWAP2 SWAP1 PUSH2 0x14CE JUMP JUMPDEST PUSH1 0x0 PUSH1 0x40 MLOAD DUP1 DUP4 SUB DUP2 PUSH1 0x0 DUP7 GAS CALL SWAP2 POP POP RETURNDATASIZE DUP1 PUSH1 0x0 DUP2 EQ PUSH2 0x9A1 JUMPI PUSH1 0x40 MLOAD SWAP2 POP PUSH1 0x1F NOT PUSH1 0x3F RETURNDATASIZE ADD AND DUP3 ADD PUSH1 0x40 MSTORE RETURNDATASIZE DUP3 MSTORE RETURNDATASIZE PUSH1 0x0 PUSH1 0x20 DUP5 ADD RETURNDATACOPY PUSH2 0x9A6 JUMP JUMPDEST PUSH1 0x60 SWAP2 POP JUMPDEST POP SWAP2 POP SWAP2 POP DUP2 DUP2 SWAP1 PUSH2 0x9EE JUMPI PUSH1 0x40 MLOAD PUSH32 0x8C379A000000000000000000000000000000000000000000000000000000000 DUP2 MSTORE PUSH1 0x4 ADD PUSH2 0x9E5 SWAP2 SWAP1 PUSH2 0x153A JUMP JUMPDEST PUSH1 0x40 MLOAD DUP1 SWAP2 SUB SWAP1 REVERT JUMPDEST POP PUSH1 0x0 DUP2 MLOAD GT ISZERO PUSH2 0xA4D JUMPI DUP1 DUP1 PUSH1 0x20 ADD SWAP1 MLOAD DUP2 ADD SWAP1 PUSH2 0xA0D SWAP2 SWAP1 PUSH2 0xFAF JUMP JUMPDEST PUSH2 0xA4C JUMPI PUSH1 0x40 MLOAD PUSH32 0x8C379A000000000000000000000000000000000000000000000000000000000 DUP2 MSTORE PUSH1 0x4 ADD PUSH2 0xA43 SWAP1 PUSH2 0x15A8 JUMP JUMPDEST PUSH1 0x40 MLOAD DUP1 SWAP2 SUB SWAP1 REVERT JUMPDEST JUMPDEST POP POP POP POP JUMP JUMPDEST PUSH1 0x0 DUP1 DUP3 EXTCODESIZE SWAP1 POP PUSH1 0x0 DUP2 GT SWAP2 POP POP SWAP2 SWAP1 POP JUMP JUMPDEST PUSH1 0x0 DUP1 REVERT JUMPDEST PUSH1 0x0 DUP2 SWAP1 POP SWAP2 SWAP1 POP JUMP JUMPDEST PUSH2 0xA7E DUP2 PUSH2 0xA6B JUMP JUMPDEST DUP2 EQ PUSH2 0xA89 JUMPI PUSH1 0x0 DUP1 REVERT JUMPDEST POP JUMP JUMPDEST PUSH1 0x0 DUP2 CALLDATALOAD SWAP1 POP PUSH2 0xA9B DUP2 PUSH2 0xA75 JUMP JUMPDEST SWAP3 SWAP2 POP POP JUMP JUMPDEST PUSH1 0x0 PUSH1 0x20 DUP3 DUP5 SUB SLT ISZERO PUSH2 0xAB7 JUMPI PUSH2 0xAB6 PUSH2 0xA66 JUMP JUMPDEST JUMPDEST PUSH1 0x0 PUSH2 0xAC5 DUP5 DUP3 DUP6 ADD PUSH2 0xA8C JUMP JUMPDEST SWAP2 POP POP SWAP3 SWAP2 POP POP JUMP JUMPDEST PUSH1 0x0 DUP2 ISZERO ISZERO SWAP1 POP SWAP2 SWAP1 POP JUMP JUMPDEST PUSH2 0xAE3 DUP2 PUSH2 0xACE JUMP JUMPDEST DUP3 MSTORE POP POP JUMP JUMPDEST PUSH1 0x0 PUSH1 0x20 DUP3 ADD SWAP1 POP PUSH2 0xAFE PUSH1 0x0 DUP4 ADD DUP5 PUSH2 0xADA JUMP JUMPDEST SWAP3 SWAP2 POP POP JUMP JUMPDEST PUSH1 0x0 DUP1 REVERT JUMPDEST PUSH1 0x0 DUP2 SWAP1 POP DUP3 PUSH1 0x20 PUSH1 0x2 MUL DUP3 ADD GT ISZERO PUSH2 0xB25 JUMPI PUSH2 0xB24 PUSH2 0xB04 JUMP JUMPDEST JUMPDEST SWAP3 SWAP2 POP POP JUMP JUMPDEST PUSH1 0x0 DUP2 SWAP1 POP DUP3 PUSH1 0x40 PUSH1 0x2 MUL DUP3 ADD GT ISZERO PUSH2 0xB47 JUMPI PUSH2 0xB46 PUSH2 0xB04 JUMP JUMPDEST JUMPDEST SWAP3 SWAP2 POP POP JUMP JUMPDEST PUSH1 0x0 DUP2 SWAP1 POP DUP3 PUSH1 0x20 PUSH1 0x4 MUL DUP3 ADD GT ISZERO PUSH2 0xB69 JUMPI PUSH2 0xB68 PUSH2 0xB04 JUMP JUMPDEST JUMPDEST SWAP3 SWAP2 POP POP JUMP JUMPDEST PUSH1 0x0 DUP1 PUSH1 0x0 DUP1 PUSH2 0x180 DUP6 DUP8 SUB SLT ISZERO PUSH2 0xB8A JUMPI PUSH2 0xB89 PUSH2 0xA66 JUMP JUMPDEST JUMPDEST PUSH1 0x0 PUSH2 0xB98 DUP8 DUP3 DUP9 ADD PUSH2 0xB09 JUMP JUMPDEST SWAP5 POP POP PUSH1 0x40 PUSH2 0xBA9 DUP8 DUP3 DUP9 ADD PUSH2 0xB2B JUMP JUMPDEST SWAP4 POP POP PUSH1 0xC0 PUSH2 0xBBA DUP8 DUP3 DUP9 ADD PUSH2 0xB09 JUMP JUMPDEST SWAP3 POP POP PUSH2 0x100 PUSH2 0xBCC DUP8 DUP3 DUP9 ADD PUSH2 0xB4D JUMP JUMPDEST SWAP2 POP POP SWAP3 SWAP6 SWAP2 SWAP5 POP SWAP3 POP JUMP JUMPDEST PUSH1 0x0 PUSH20 0xFFFFFFFFFFFFFFFFFFFFFFFFFFFFFFFFFFFFFFFF DUP3 AND SWAP1 POP SWAP2 SWAP1 POP JUMP JUMPDEST PUSH1 0x0 PUSH2 0xC03 DUP3 PUSH2 0xBD8 JUMP JUMPDEST SWAP1 POP SWAP2 SWAP1 POP JUMP JUMPDEST PUSH2 0xC13 DUP2 PUSH2 0xBF8 JUMP JUMPDEST DUP3 MSTORE POP POP JUMP JUMPDEST PUSH1 0x0 PUSH1 0x20 DUP3 ADD SWAP1 POP PUSH2 0xC2E PUSH1 0x0 DUP4 ADD DUP5 PUSH2 0xC0A JUMP JUMPDEST SWAP3 SWAP2 POP POP JUMP JUMPDEST PUSH1 0x0 DUP2 SWAP1 POP SWAP2 SWAP1 POP JUMP JUMPDEST PUSH2 0xC47 DUP2 PUSH2 0xC34 JUMP JUMPDEST DUP2 EQ PUSH2 0xC52 JUMPI PUSH1 0x0 DUP1 REVERT JUMPDEST POP JUMP JUMPDEST PUSH1 0x0 DUP2 CALLDATALOAD SWAP1 POP PUSH2 0xC64 DUP2 PUSH2 0xC3E JUMP JUMPDEST SWAP3 SWAP2 POP POP JUMP JUMPDEST PUSH1 0x0 DUP1 PUSH1 0x40 DUP4 DUP6 SUB SLT ISZERO PUSH2 0xC81 JUMPI PUSH2 0xC80 PUSH2 0xA66 JUMP JUMPDEST JUMPDEST PUSH1 0x0 PUSH2 0xC8F DUP6 DUP3 DUP7 ADD PUSH2 0xC55 JUMP JUMPDEST SWAP3 POP POP PUSH1 0x20 PUSH2 0xCA0 DUP6 DUP3 DUP7 ADD PUSH2 0xA8C JUMP JUMPDEST SWAP2 POP POP SWAP3 POP SWAP3 SWAP1 POP JUMP JUMPDEST PUSH1 0x0 DUP3 DUP3 MSTORE PUSH1 0x20 DUP3 ADD SWAP1 POP SWAP3 SWAP2 POP POP JUMP JUMPDEST PUSH32 0x696E636F7272656374207075626C6963496E707574206C656E67746800000000 PUSH1 0x0 DUP3 ADD MSTORE POP JUMP JUMPDEST PUSH1 0x0 PUSH2 0xCF1 PUSH1 0x1C DUP4 PUSH2 0xCAA JUMP JUMPDEST SWAP2 POP PUSH2 0xCFC DUP3 PUSH2 0xCBB JUMP JUMPDEST PUSH1 0x20 DUP3 ADD SWAP1 POP SWAP2 SWAP1 POP JUMP JUMPDEST PUSH1 0x0 PUSH1 0x20 DUP3 ADD SWAP1 POP DUP2 DUP2 SUB PUSH1 0x0 DUP4 ADD MSTORE PUSH2 0xD20 DUP2 PUSH2 0xCE4 JUMP JUMPDEST SWAP1 POP SWAP2 SWAP1 POP JUMP JUMPDEST PUSH32 0x4E487B7100000000000000000000000000000000000000000000000000000000 PUSH1 0x0 MSTORE PUSH1 0x32 PUSH1 0x4 MSTORE PUSH1 0x24 PUSH1 0x0 REVERT JUMPDEST PUSH32 0x546865206E6F746520686173206265656E20616C7265616479207370656E7400 PUSH1 0x0 DUP3 ADD MSTORE POP JUMP JUMPDEST PUSH1 0x0 PUSH2 0xD8C PUSH1 0x1F DUP4 PUSH2 0xCAA JUMP JUMPDEST SWAP2 POP PUSH2 0xD97 DUP3 PUSH2 0xD56 JUMP JUMPDEST PUSH1 0x20 DUP3 ADD SWAP1 POP SWAP2 SWAP1 POP JUMP JUMPDEST PUSH1 0x0 PUSH1 0x20 DUP3 ADD SWAP1 POP DUP2 DUP2 SUB PUSH1 0x0 DUP4 ADD MSTORE PUSH2 0xDBB DUP2 PUSH2 0xD7F JUMP JUMPDEST SWAP1 POP SWAP2 SWAP1 POP JUMP JUMPDEST PUSH32 0x6E6F20656E6F7567682072656D61696E696E6720616D6F756E7420746F20636C PUSH1 0x0 DUP3 ADD MSTORE PUSH32 0x61696D0000000000000000000000000000000000000000000000000000000000 PUSH1 0x20 DUP3 ADD MSTORE POP JUMP JUMPDEST PUSH1 0x0 PUSH2 0xE1E PUSH1 0x23 DUP4 PUSH2 0xCAA JUMP JUMPDEST SWAP2 POP PUSH2 0xE29 DUP3 PUSH2 0xDC2 JUMP JUMPDEST PUSH1 0x40 DUP3 ADD SWAP1 POP SWAP2 SWAP1 POP JUMP JUMPDEST PUSH1 0x0 PUSH1 0x20 DUP3 ADD SWAP1 POP DUP2 DUP2 SUB PUSH1 0x0 DUP4 ADD MSTORE PUSH2 0xE4D DUP2 PUSH2 0xE11 JUMP JUMPDEST SWAP1 POP SWAP2 SWAP1 POP JUMP JUMPDEST DUP3 DUP2 DUP4 CALLDATACOPY POP POP POP JUMP JUMPDEST PUSH2 0xE69 PUSH1 0x40 DUP4 DUP4 PUSH2 0xE54 JUMP JUMPDEST POP POP JUMP JUMPDEST PUSH1 0x0 PUSH1 0x2 SWAP1 POP SWAP2 SWAP1 POP JUMP JUMPDEST PUSH1 0x0 DUP2 SWAP1 POP SWAP3 SWAP2 POP POP JUMP JUMPDEST PUSH1 0x0 DUP2 SWAP1 POP SWAP2 SWAP1 POP JUMP JUMPDEST PUSH2 0xE99 PUSH1 0x40 DUP4 DUP4 PUSH2 0xE54 JUMP JUMPDEST POP POP JUMP JUMPDEST PUSH1 0x0 PUSH2 0xEA9 DUP4 DUP4 PUSH2 0xE8D JUMP JUMPDEST PUSH1 0x40 DUP4 ADD SWAP1 POP SWAP3 SWAP2 POP POP JUMP JUMPDEST PUSH1 0x0 DUP3 SWAP1 POP SWAP3 SWAP2 POP POP JUMP JUMPDEST PUSH1 0x0 PUSH1 0x40 DUP3 ADD SWAP1 POP SWAP2 SWAP1 POP JUMP JUMPDEST PUSH2 0xED6 DUP2 PUSH2 0xE6D JUMP JUMPDEST PUSH2 0xEE0 DUP2 DUP5 PUSH2 0xE78 JUMP JUMPDEST SWAP3 POP PUSH2 0xEEB DUP3 PUSH2 0xE83 JUMP JUMPDEST DUP1 PUSH1 0x0 JUMPDEST DUP4 DUP2 LT ISZERO PUSH2 0xF24 JUMPI PUSH2 0xF01 DUP3 DUP5 PUSH2 0xEB5 JUMP JUMPDEST PUSH2 0xF0B DUP8 DUP3 PUSH2 0xE9D JUMP JUMPDEST SWAP7 POP PUSH2 0xF16 DUP4 PUSH2 0xEC0 JUMP JUMPDEST SWAP3 POP POP PUSH1 0x1 DUP2 ADD SWAP1 POP PUSH2 0xEEF JUMP JUMPDEST POP POP POP POP POP POP JUMP JUMPDEST PUSH2 0xF38 PUSH1 0x80 DUP4 DUP4 PUSH2 0xE54 JUMP JUMPDEST POP POP JUMP JUMPDEST PUSH1 0x0 PUSH2 0x180 DUP3 ADD SWAP1 POP PUSH2 0xF52 PUSH1 0x0 DUP4 ADD DUP8 PUSH2 0xE5D JUMP JUMPDEST PUSH2 0xF5F PUSH1 0x40 DUP4 ADD DUP7 PUSH2 0xECD JUMP JUMPDEST PUSH2 0xF6C PUSH1 0xC0 DUP4 ADD DUP6 PUSH2 0xE5D JUMP JUMPDEST PUSH2 0xF7A PUSH2 0x100 DUP4 ADD DUP5 PUSH2 0xF2C JUMP JUMPDEST SWAP6 SWAP5 POP POP POP POP POP JUMP JUMPDEST PUSH2 0xF8C DUP2 PUSH2 0xACE JUMP JUMPDEST DUP2 EQ PUSH2 0xF97 JUMPI PUSH1 0x0 DUP1 REVERT JUMPDEST POP JUMP JUMPDEST PUSH1 0x0 DUP2 MLOAD SWAP1 POP PUSH2 0xFA9 DUP2 PUSH2 0xF83 JUMP JUMPDEST SWAP3 SWAP2 POP POP JUMP JUMPDEST PUSH1 0x0 PUSH1 0x20 DUP3 DUP5 SUB SLT ISZERO PUSH2 0xFC5 JUMPI PUSH2 0xFC4 PUSH2 0xA66 JUMP JUMPDEST JUMPDEST PUSH1 0x0 PUSH2 0xFD3 DUP5 DUP3 DUP6 ADD PUSH2 0xF9A JUMP JUMPDEST SWAP2 POP POP SWAP3 SWAP2 POP POP JUMP JUMPDEST PUSH32 0x67726F7468313620766572696669636174696F6E206661696C00000000000000 PUSH1 0x0 DUP3 ADD MSTORE POP JUMP JUMPDEST PUSH1 0x0 PUSH2 0x1012 PUSH1 0x19 DUP4 PUSH2 0xCAA JUMP JUMPDEST SWAP2 POP PUSH2 0x101D DUP3 PUSH2 0xFDC JUMP JUMPDEST PUSH1 0x20 DUP3 ADD SWAP1 POP SWAP2 SWAP1 POP JUMP JUMPDEST PUSH1 0x0 PUSH1 0x20 DUP3 ADD SWAP1 POP DUP2 DUP2 SUB PUSH1 0x0 DUP4 ADD MSTORE PUSH2 0x1041 DUP2 PUSH2 0x1005 JUMP JUMPDEST SWAP1 POP SWAP2 SWAP1 POP JUMP JUMPDEST PUSH32 0x4E487B7100000000000000000000000000000000000000000000000000000000 PUSH1 0x0 MSTORE PUSH1 0x11 PUSH1 0x4 MSTORE PUSH1 0x24 PUSH1 0x0 REVERT JUMPDEST PUSH1 0x0 PUSH2 0x1082 DUP3 PUSH2 0xC34 JUMP JUMPDEST SWAP2 POP PUSH2 0x108D DUP4 PUSH2 0xC34 JUMP JUMPDEST SWAP3 POP DUP3 DUP3 SUB SWAP1 POP DUP2 DUP2 GT ISZERO PUSH2 0x10A5 JUMPI PUSH2 0x10A4 PUSH2 0x1048 JUMP JUMPDEST JUMPDEST SWAP3 SWAP2 POP POP JUMP JUMPDEST PUSH2 0x10B4 DUP2 PUSH2 0xC34 JUMP JUMPDEST DUP3 MSTORE POP POP JUMP JUMPDEST PUSH1 0x0 PUSH1 0x40 DUP3 ADD SWAP1 POP PUSH2 0x10CF PUSH1 0x0 DUP4 ADD DUP6 PUSH2 0xC0A JUMP JUMPDEST PUSH2 0x10DC PUSH1 0x20 DUP4 ADD DUP5 PUSH2 0x10AB JUMP JUMPDEST SWAP4 SWAP3 POP POP POP JUMP JUMPDEST PUSH2 0x10EC DUP2 PUSH2 0xA6B JUMP JUMPDEST DUP3 MSTORE POP POP JUMP JUMPDEST PUSH1 0x0 PUSH1 0x80 DUP3 ADD SWAP1 POP PUSH2 0x1107 PUSH1 0x0 DUP4 ADD DUP8 PUSH2 0xC0A JUMP JUMPDEST PUSH2 0x1114 PUSH1 0x20 DUP4 ADD DUP7 PUSH2 0x10AB JUMP JUMPDEST PUSH2 0x1121 PUSH1 0x40 DUP4 ADD DUP6 PUSH2 0x10E3 JUMP JUMPDEST PUSH2 0x112E PUSH1 0x60 DUP4 ADD DUP5 PUSH2 0x10E3 JUMP JUMPDEST SWAP6 SWAP5 POP POP POP POP POP JUMP JUMPDEST PUSH32 0x4554482076616C756520697320737570706F73656420746F206265203020666F PUSH1 0x0 DUP3 ADD MSTORE PUSH32 0x72204552433230206465706F7369740000000000000000000000000000000000 PUSH1 0x20 DUP3 ADD MSTORE POP JUMP JUMPDEST PUSH1 0x0 PUSH2 0x1193 PUSH1 0x2F DUP4 PUSH2 0xCAA JUMP JUMPDEST SWAP2 POP PUSH2 0x119E DUP3 PUSH2 0x1137 JUMP JUMPDEST PUSH1 0x40 DUP3 ADD SWAP1 POP SWAP2 SWAP1 POP JUMP JUMPDEST PUSH1 0x0 PUSH1 0x20 DUP3 ADD SWAP1 POP DUP2 DUP2 SUB PUSH1 0x0 DUP4 ADD MSTORE PUSH2 0x11C2 DUP2 PUSH2 0x1186 JUMP JUMPDEST SWAP1 POP SWAP2 SWAP1 POP JUMP JUMPDEST PUSH32 0x636F6D6D69746D656E7420657869737473000000000000000000000000000000 PUSH1 0x0 DUP3 ADD MSTORE POP JUMP JUMPDEST PUSH1 0x0 PUSH2 0x11FF PUSH1 0x11 DUP4 PUSH2 0xCAA JUMP JUMPDEST SWAP2 POP PUSH2 0x120A DUP3 PUSH2 0x11C9 JUMP JUMPDEST PUSH1 0x20 DUP3 ADD SWAP1 POP SWAP2 SWAP1 POP JUMP JUMPDEST PUSH1 0x0 PUSH1 0x20 DUP3 ADD SWAP1 POP DUP2 DUP2 SUB PUSH1 0x0 DUP4 ADD MSTORE PUSH2 0x122E DUP2 PUSH2 0x11F2 JUMP JUMPDEST SWAP1 POP SWAP2 SWAP1 POP JUMP JUMPDEST PUSH1 0x0 DUP2 MLOAD SWAP1 POP PUSH2 0x1244 DUP2 PUSH2 0xC3E JUMP JUMPDEST SWAP3 SWAP2 POP POP JUMP JUMPDEST PUSH1 0x0 PUSH1 0x20 DUP3 DUP5 SUB SLT ISZERO PUSH2 0x1260 JUMPI PUSH2 0x125F PUSH2 0xA66 JUMP JUMPDEST JUMPDEST PUSH1 0x0 PUSH2 0x126E DUP5 DUP3 DUP6 ADD PUSH2 0x1235 JUMP JUMPDEST SWAP2 POP POP SWAP3 SWAP2 POP POP JUMP JUMPDEST PUSH1 0x0 PUSH1 0x60 DUP3 ADD SWAP1 POP PUSH2 0x128C PUSH1 0x0 DUP4 ADD DUP7 PUSH2 0xC0A JUMP JUMPDEST PUSH2 0x1299 PUSH1 0x20 DUP4 ADD DUP6 PUSH2 0xC0A JUMP JUMPDEST PUSH2 0x12A6 PUSH1 0x40 DUP4 ADD DUP5 PUSH2 0x10AB JUMP JUMPDEST SWAP5 SWAP4 POP POP POP POP JUMP JUMPDEST PUSH32 0x4F564552464C4F57000000000000000000000000000000000000000000000000 PUSH1 0x0 DUP3 ADD MSTORE POP JUMP JUMPDEST PUSH1 0x0 PUSH2 0x12E4 PUSH1 0x8 DUP4 PUSH2 0xCAA JUMP JUMPDEST SWAP2 POP PUSH2 0x12EF DUP3 PUSH2 0x12AE JUMP JUMPDEST PUSH1 0x20 DUP3 ADD SWAP1 POP SWAP2 SWAP1 POP JUMP JUMPDEST PUSH1 0x0 PUSH1 0x20 DUP3 ADD SWAP1 POP DUP2 DUP2 SUB PUSH1 0x0 DUP4 ADD MSTORE PUSH2 0x1313 DUP2 PUSH2 0x12D7 JUMP JUMPDEST SWAP1 POP SWAP2 SWAP1 POP JUMP JUMPDEST PUSH1 0x0 PUSH2 0x1325 DUP3 PUSH2 0xC34 JUMP JUMPDEST SWAP2 POP PUSH2 0x1330 DUP4 PUSH2 0xC34 JUMP JUMPDEST SWAP3 POP DUP3 DUP3 ADD SWAP1 POP DUP1 DUP3 GT ISZERO PUSH2 0x1348 JUMPI PUSH2 0x1347 PUSH2 0x1048 JUMP JUMPDEST JUMPDEST SWAP3 SWAP2 POP POP JUMP JUMPDEST PUSH32 0x494E434F52524543545F414D4F554E545F5452414E5346455252454400000000 PUSH1 0x0 DUP3 ADD MSTORE POP JUMP JUMPDEST PUSH1 0x0 PUSH2 0x1384 PUSH1 0x1C DUP4 PUSH2 0xCAA JUMP JUMPDEST SWAP2 POP PUSH2 0x138F DUP3 PUSH2 0x134E JUMP JUMPDEST PUSH1 0x20 DUP3 ADD SWAP1 POP SWAP2 SWAP1 POP JUMP JUMPDEST PUSH1 0x0 PUSH1 0x20 DUP3 ADD SWAP1 POP DUP2 DUP2 SUB PUSH1 0x0 DUP4 ADD MSTORE PUSH2 0x13B3 DUP2 PUSH2 0x1377 JUMP JUMPDEST SWAP1 POP SWAP2 SWAP1 POP JUMP JUMPDEST PUSH1 0x0 PUSH1 0x60 DUP3 ADD SWAP1 POP PUSH2 0x13CF PUSH1 0x0 DUP4 ADD DUP7 PUSH2 0xC0A JUMP JUMPDEST PUSH2 0x13DC PUSH1 0x20 DUP4 ADD DUP6 PUSH2 0x10AB JUMP JUMPDEST PUSH2 0x13E9 PUSH1 0x40 DUP4 ADD DUP5 PUSH2 0x10E3 JUMP JUMPDEST SWAP5 SWAP4 POP POP POP POP JUMP JUMPDEST PUSH32 0x4241445F544F4B454E5F41444452455353000000000000000000000000000000 PUSH1 0x0 DUP3 ADD MSTORE POP JUMP JUMPDEST PUSH1 0x0 PUSH2 0x1427 PUSH1 0x11 DUP4 PUSH2 0xCAA JUMP JUMPDEST SWAP2 POP PUSH2 0x1432 DUP3 PUSH2 0x13F1 JUMP JUMPDEST PUSH1 0x20 DUP3 ADD SWAP1 POP SWAP2 SWAP1 POP JUMP JUMPDEST PUSH1 0x0 PUSH1 0x20 DUP3 ADD SWAP1 POP DUP2 DUP2 SUB PUSH1 0x0 DUP4 ADD MSTORE PUSH2 0x1456 DUP2 PUSH2 0x141A JUMP JUMPDEST SWAP1 POP SWAP2 SWAP1 POP JUMP JUMPDEST PUSH1 0x0 DUP2 MLOAD SWAP1 POP SWAP2 SWAP1 POP JUMP JUMPDEST PUSH1 0x0 DUP2 SWAP1 POP SWAP3 SWAP2 POP POP JUMP JUMPDEST PUSH1 0x0 JUMPDEST DUP4 DUP2 LT ISZERO PUSH2 0x1491 JUMPI DUP1 DUP3 ADD MLOAD DUP2 DUP5 ADD MSTORE PUSH1 0x20 DUP2 ADD SWAP1 POP PUSH2 0x1476 JUMP JUMPDEST PUSH1 0x0 DUP5 DUP5 ADD MSTORE POP POP POP POP JUMP JUMPDEST PUSH1 0x0 PUSH2 0x14A8 DUP3 PUSH2 0x145D JUMP JUMPDEST PUSH2 0x14B2 DUP2 DUP6 PUSH2 0x1468 JUMP JUMPDEST SWAP4 POP PUSH2 0x14C2 DUP2 DUP6 PUSH1 0x20 DUP7 ADD PUSH2 0x1473 JUMP JUMPDEST DUP1 DUP5 ADD SWAP2 POP POP SWAP3 SWAP2 POP POP JUMP JUMPDEST PUSH1 0x0 PUSH2 0x14DA DUP3 DUP5 PUSH2 0x149D JUMP JUMPDEST SWAP2 POP DUP2 SWAP1 POP SWAP3 SWAP2 POP POP JUMP JUMPDEST PUSH1 0x0 DUP2 MLOAD SWAP1 POP SWAP2 SWAP1 POP JUMP JUMPDEST PUSH1 0x0 PUSH1 0x1F NOT PUSH1 0x1F DUP4 ADD AND SWAP1 POP SWAP2 SWAP1 POP JUMP JUMPDEST PUSH1 0x0 PUSH2 0x150C DUP3 PUSH2 0x14E5 JUMP JUMPDEST PUSH2 0x1516 DUP2 DUP6 PUSH2 0xCAA JUMP JUMPDEST SWAP4 POP PUSH2 0x1526 DUP2 DUP6 PUSH1 0x20 DUP7 ADD PUSH2 0x1473 JUMP JUMPDEST PUSH2 0x152F DUP2 PUSH2 0x14F0 JUMP JUMPDEST DUP5 ADD SWAP2 POP POP SWAP3 SWAP2 POP POP JUMP JUMPDEST PUSH1 0x0 PUSH1 0x20 DUP3 ADD SWAP1 POP DUP2 DUP2 SUB PUSH1 0x0 DUP4 ADD MSTORE PUSH2 0x1554 DUP2 DUP5 PUSH2 0x1501 JUMP JUMPDEST SWAP1 POP SWAP3 SWAP2 POP POP JUMP JUMPDEST PUSH32 0x544F4B454E5F4F5045524154494F4E5F4641494C454400000000000000000000 PUSH1 0x0 DUP3 ADD MSTORE POP JUMP JUMPDEST PUSH1 0x0 PUSH2 0x1592 PUSH1 0x16 DUP4 PUSH2 0xCAA JUMP JUMPDEST SWAP2 POP PUSH2 0x159D DUP3 PUSH2 0x155C JUMP JUMPDEST PUSH1 0x20 DUP3 ADD SWAP1 POP SWAP2 SWAP1 POP JUMP JUMPDEST PUSH1 0x0 PUSH1 0x20 DUP3 ADD SWAP1 POP DUP2 DUP2 SUB PUSH1 0x0 DUP4 ADD MSTORE PUSH2 0x15C1 DUP2 PUSH2 0x1585 JUMP JUMPDEST SWAP1 POP SWAP2 SWAP1 POP JUMP INVALID LOG2 PUSH5 0x6970667358 0x22 SLT KECCAK256 0xB3 DUP10 BASEFEE SWAP16 0xEC 0xDB 0xCC 0xC9 GAS EXTCODESIZE 0xB7 0xE CODECOPY PUSH10 0xC3AE229509A7E293FCFD SWAP16 COINBASE PUSH1 0x61 BYTE 0x2B PUSH16 0xE364736F6C6343000818003300000000 "
        },
        "methodIdentifiers": {
          "depositERC20(uint256,bytes32)": "a4ed8b70",
          "groth16VerifierAddress()": "a0e5f890",
          "nullifierHashes(bytes32)": "17cc915c",
          "tokenAddress()": "9d76ea58",
          "withdraw(uint256[2],uint256[2][2],uint256[2],uint256[4])": "551c4fd2"
        }
      }
    }
  }
}