{
  "contracts/Groth16Verifier.sol": {
    "Groth16Verifier": {
      "abi": [
        {
          "inputs": [
            {
              "internalType": "uint256[2]",
              "name": "_pA",
              "type": "uint256[2]"
            },
            {
              "internalType": "uint256[2][2]",
              "name": "_pB",
              "type": "uint256[2][2]"
            },
            {
              "internalType": "uint256[2]",
              "name": "_pC",
              "type": "uint256[2]"
            },
            {
              "internalType": "uint256[13]",
              "name": "_pubSignals",
              "type": "uint256[13]"
            }
          ],
          "name": "verifyProof",
          "outputs": [
            {
              "internalType": "bool",
              "name": "",
              "type": "bool"
            }
          ],
          "stateMutability": "view",
          "type": "function"
        }
      ],
      "evm": {
        "bytecode": {
          "linkReferences": {},
          "object": "608060405234801561001057600080fd5b50610a74806100206000396000f3fe608060405234801561001057600080fd5b506004361061002b5760003560e01c8063f143a75e14610030575b600080fd5b61004a6004803603810190610045919061099f565b610060565b6040516100579190610a23565b60405180910390f35b6000610851565b7f30644e72e131a029b85045b68181585d97816a916871ca8d3c208c16d87cfd478110610098576000805260206000f35b50565b600060405183815284602082015285604082015260408160608360076107d05a03fa9150816100ce576000805260206000f35b825160408201526020830151606082015260408360808360066107d05a03fa9150816100fe576000805260206000f35b505050505050565b600060808601600087017f1927ef0481bf588d9f6b180646494ee0ff203c03c8fbf9daf0a725a03a6eb1e181527f09f3f04077ce818c02603a2005a7431c955d6a3d2bd958b876606f919234667860208201526101a960008801357f0bc815d642e426d7da967808b98650a32cb5d395994dc4db90cb002d3ec853e67f2072a6163f1043e20fa36b02e1a1fe8807bc7209bcf81351d84a11169583fbfe8461009b565b6101f960208801357f0b9da219de6d4ce14286cb82af6a32ce80a9fb80688c1c9de6814412bfadde9e7f0ccd7162c284e3160122e37d2b024df4e3178804daa2ecf7cf8502ff7677818b8461009b565b61024960408801357f1d030c096ca10738246956af717892516a9de27c2e290748bab895e93d2ec52d7f22e8cd520e492e406eb0d6d0dc2f6dcaade3bdb76ec50864bd3e5407c51768778461009b565b61029960608801357f115e8b318d05057fca173aa919fadb5dfdc8eaed3405feb2f8c8bb7ec512aaba7f2fe9a925f234e240322da92f8a876cbde1196b5e18570b9d6c111fffe35ec4668461009b565b6102e960808801357f298555f0fbf014dc6cb7a1fbf8b57b3c183b6a8e1c530ba1ac77a533232285837f2269ba2cada845b53dc35d6009a07937009e91f4b66d8eb30156095e3831455f8461009b565b61033960a08801357f2031b98e6ef4e59a51961faa64b5e861a2cf1fd03cfabb48529949c8c3d8e6b57f1687c91e1a2001ab1c237116d94c0a9c1b66cb8c863ad38b35f6d4ef74e14b108461009b565b61038960c08801357f20dae64189acfff98e031d936ec628ba2bbfdbf15680c090b46ec6ba09b415c77f08264d4eb3e6131e43987936fd06f8273c61309c7144aa07315729edf31c42738461009b565b6103d960e08801357f0c1dcf2c2fbfa17e49e1ffeea8663b34d05c74cc4906bb96bd76fa599d63600b7f0e2e20d66d7ab6269feecca437bc5992d6d9c1f8ff6d12ce7d3d321825083e4c8461009b565b61042a6101008801357f1e4113a3ca0060ca41800e2f7dd85454dbff7bf76569b15273d966ec9423529e7f141e4cb9181b1f812d857720e2bb68eb16df53747dfe31398686b42bc0630f048461009b565b61047b6101208801357f09473771de3de2fafc29df657f2f79f90f33a4edc0389e9f830c71a87ca029b47f10f4441b7d14c61aa476d77f73f61555e0a8c574d67e2fdc1d99821ea7ba04578461009b565b6104cc6101408801357f11103389e8f654811188b4569f3946b4f6bd14184a5f54ae3846c84e1985c9b77f232efa5162e7c38ce70ea95a5a2c6dcd5b25710d35bbd074e47f4faf0c4628eb8461009b565b61051c6101608801357f07b876de0fe18c59b2ee7f15fc3305ddda7e6d9f09d6fe1492839156fed33b097ef93ab762aade147342ca8c3aeb5f05b0ea7b2c6b3bd300f4e44de8b5ab2ea28461009b565b61056d6101808801357f0d176f357f4fd7c5ad8653e3626576f33658d894267e06a434c54e6e5a2585477f10cb9ec07f02a842c5e6a23e9cf719734db059ff468fe964928ca54941e5f5bd8461009b565b833582527f30644e72e131a029b85045b68181585d97816a916871ca8d3c208c16d87cfd4760208501357f30644e72e131a029b85045b68181585d97816a916871ca8d3c208c16d87cfd4703066020830152843560408301526020850135606083015260408501356080830152606085013560a08301527f2d4d9aa7e302d9df41749d5507949d05dbea33fbb16c643b22f599a2be6df2e260c08301527f14bedd503c37ceb061d8ec60209fe345ce89830a19230301f076caff004d192660e08301527f0967032fcbf776d1afc985f88877f182d38480a653f2decaa9794cbc3bf3060c6101008301527f0e187847ad4c798374d0d6732bf501847dd68bc0e071241e0213bc7fc13db7ab6101208301527f304cfbd1e08a704a99f5e847d93f8c3caafddec46b7a0d379da69a4d112346a76101408301527f1739c1b1a457a8c7313123d24d2f9192f896b7c63eea05a9d57f06547ad0cec8610160830152600088015161018083015260206000018801516101a08301527f198e9393920d483a7260bfb731fb5d25f1aa493335a9e71297e485b7aef312c26101c08301527f1800deef121f1e76426a00665e5c4479674322d4f75edadd46debd5cd992f6ed6101e08301527f090689d0585ff075ec9e99ad690c3395bc4b313370b38ef355acdadcd122975b6102008301527f12c85ea5db8c6deb4aab71808dcb408fe3d1e7690c43d37b4ce6cc0166fa7daa610220830152853561024083015260208601356102608301527f278d11a01b3d377539844c603ce14e3291b1904c85bf818452fc0d451c4a80336102808301527f19957888fccf512c9817d4430dccfcd18d9e1bd499b80a5cdacc0de2eeb106136102a08301527f2788b2dca558fa0aad77e74eaeb25175a589e89dc1b68d6325e9b4b4121eceb06102c08301527f01c2b1883868e36394fd996738321ef13d0f862d60e11fbea972da5bd4c08af86102e08301526020826103008460086107d05a03fa82518116935050505095945050505050565b60405161038081016040526108696000840135610067565b6108766020840135610067565b6108836040840135610067565b6108906060840135610067565b61089d6080840135610067565b6108aa60a0840135610067565b6108b760c0840135610067565b6108c460e0840135610067565b6108d2610100840135610067565b6108e0610120840135610067565b6108ee610140840135610067565b6108fc610160840135610067565b61090a610180840135610067565b6109186101a0840135610067565b610925818486888a610106565b8060005260206000f35b600080fd5b600080fd5b60008190508260206002028201111561095557610954610934565b5b92915050565b60008190508260406002028201111561097757610976610934565b5b92915050565b6000819050826020600d028201111561099957610998610934565b5b92915050565b6000806000806102a085870312156109ba576109b961092f565b5b60006109c887828801610939565b94505060406109d98782880161095b565b93505060c06109ea87828801610939565b9250506101006109fc8782880161097d565b91505092959194509250565b60008115159050919050565b610a1d81610a08565b82525050565b6000602082019050610a386000830184610a14565b9291505056fea264697066735822122085eebe4db090266ba6ba0eb35ba4e51fe1bddcfa105770d62dc1b3e4e3a6769764736f6c63430008180033",
          "opcodes": "PUSH1 0x80 PUSH1 0x40 MSTORE CALLVALUE DUP1 ISZERO PUSH2 0x10 JUMPI PUSH1 0x0 DUP1 REVERT JUMPDEST POP PUSH2 0xA74 DUP1 PUSH2 0x20 PUSH1 0x0 CODECOPY PUSH1 0x0 RETURN INVALID PUSH1 0x80 PUSH1 0x40 MSTORE CALLVALUE DUP1 ISZERO PUSH2 0x10 JUMPI PUSH1 0x0 DUP1 REVERT JUMPDEST POP PUSH1 0x4 CALLDATASIZE LT PUSH2 0x2B JUMPI PUSH1 0x0 CALLDATALOAD PUSH1 0xE0 SHR DUP1 PUSH4 0xF143A75E EQ PUSH2 0x30 JUMPI JUMPDEST PUSH1 0x0 DUP1 REVERT JUMPDEST PUSH2 0x4A PUSH1 0x4 DUP1 CALLDATASIZE SUB DUP2 ADD SWAP1 PUSH2 0x45 SWAP2 SWAP1 PUSH2 0x99F JUMP JUMPDEST PUSH2 0x60 JUMP JUMPDEST PUSH1 0x40 MLOAD PUSH2 0x57 SWAP2 SWAP1 PUSH2 0xA23 JUMP JUMPDEST PUSH1 0x40 MLOAD DUP1 SWAP2 SUB SWAP1 RETURN JUMPDEST PUSH1 0x0 PUSH2 0x851 JUMP JUMPDEST PUSH32 0x30644E72E131A029B85045B68181585D97816A916871CA8D3C208C16D87CFD47 DUP2 LT PUSH2 0x98 JUMPI PUSH1 0x0 DUP1 MSTORE PUSH1 0x20 PUSH1 0x0 RETURN JUMPDEST POP JUMP JUMPDEST PUSH1 0x0 PUSH1 0x40 MLOAD DUP4 DUP2 MSTORE DUP5 PUSH1 0x20 DUP3 ADD MSTORE DUP6 PUSH1 0x40 DUP3 ADD MSTORE PUSH1 0x40 DUP2 PUSH1 0x60 DUP4 PUSH1 0x7 PUSH2 0x7D0 GAS SUB STATICCALL SWAP2 POP DUP2 PUSH2 0xCE JUMPI PUSH1 0x0 DUP1 MSTORE PUSH1 0x20 PUSH1 0x0 RETURN JUMPDEST DUP3 MLOAD PUSH1 0x40 DUP3 ADD MSTORE PUSH1 0x20 DUP4 ADD MLOAD PUSH1 0x60 DUP3 ADD MSTORE PUSH1 0x40 DUP4 PUSH1 0x80 DUP4 PUSH1 0x6 PUSH2 0x7D0 GAS SUB STATICCALL SWAP2 POP DUP2 PUSH2 0xFE JUMPI PUSH1 0x0 DUP1 MSTORE PUSH1 0x20 PUSH1 0x0 RETURN JUMPDEST POP POP POP POP POP POP JUMP JUMPDEST PUSH1 0x0 PUSH1 0x80 DUP7 ADD PUSH1 0x0 DUP8 ADD PUSH32 0x1927EF0481BF588D9F6B180646494EE0FF203C03C8FBF9DAF0A725A03A6EB1E1 DUP2 MSTORE PUSH32 0x9F3F04077CE818C02603A2005A7431C955D6A3D2BD958B876606F9192346678 PUSH1 0x20 DUP3 ADD MSTORE PUSH2 0x1A9 PUSH1 0x0 DUP9 ADD CALLDATALOAD PUSH32 0xBC815D642E426D7DA967808B98650A32CB5D395994DC4DB90CB002D3EC853E6 PUSH32 0x2072A6163F1043E20FA36B02E1A1FE8807BC7209BCF81351D84A11169583FBFE DUP5 PUSH2 0x9B JUMP JUMPDEST PUSH2 0x1F9 PUSH1 0x20 DUP9 ADD CALLDATALOAD PUSH32 0xB9DA219DE6D4CE14286CB82AF6A32CE80A9FB80688C1C9DE6814412BFADDE9E PUSH32 0xCCD7162C284E3160122E37D2B024DF4E3178804DAA2ECF7CF8502FF7677818B DUP5 PUSH2 0x9B JUMP JUMPDEST PUSH2 0x249 PUSH1 0x40 DUP9 ADD CALLDATALOAD PUSH32 0x1D030C096CA10738246956AF717892516A9DE27C2E290748BAB895E93D2EC52D PUSH32 0x22E8CD520E492E406EB0D6D0DC2F6DCAADE3BDB76EC50864BD3E5407C5176877 DUP5 PUSH2 0x9B JUMP JUMPDEST PUSH2 0x299 PUSH1 0x60 DUP9 ADD CALLDATALOAD PUSH32 0x115E8B318D05057FCA173AA919FADB5DFDC8EAED3405FEB2F8C8BB7EC512AABA PUSH32 0x2FE9A925F234E240322DA92F8A876CBDE1196B5E18570B9D6C111FFFE35EC466 DUP5 PUSH2 0x9B JUMP JUMPDEST PUSH2 0x2E9 PUSH1 0x80 DUP9 ADD CALLDATALOAD PUSH32 0x298555F0FBF014DC6CB7A1FBF8B57B3C183B6A8E1C530BA1AC77A53323228583 PUSH32 0x2269BA2CADA845B53DC35D6009A07937009E91F4B66D8EB30156095E3831455F DUP5 PUSH2 0x9B JUMP JUMPDEST PUSH2 0x339 PUSH1 0xA0 DUP9 ADD CALLDATALOAD PUSH32 0x2031B98E6EF4E59A51961FAA64B5E861A2CF1FD03CFABB48529949C8C3D8E6B5 PUSH32 0x1687C91E1A2001AB1C237116D94C0A9C1B66CB8C863AD38B35F6D4EF74E14B10 DUP5 PUSH2 0x9B JUMP JUMPDEST PUSH2 0x389 PUSH1 0xC0 DUP9 ADD CALLDATALOAD PUSH32 0x20DAE64189ACFFF98E031D936EC628BA2BBFDBF15680C090B46EC6BA09B415C7 PUSH32 0x8264D4EB3E6131E43987936FD06F8273C61309C7144AA07315729EDF31C4273 DUP5 PUSH2 0x9B JUMP JUMPDEST PUSH2 0x3D9 PUSH1 0xE0 DUP9 ADD CALLDATALOAD PUSH32 0xC1DCF2C2FBFA17E49E1FFEEA8663B34D05C74CC4906BB96BD76FA599D63600B PUSH32 0xE2E20D66D7AB6269FEECCA437BC5992D6D9C1F8FF6D12CE7D3D321825083E4C DUP5 PUSH2 0x9B JUMP JUMPDEST PUSH2 0x42A PUSH2 0x100 DUP9 ADD CALLDATALOAD PUSH32 0x1E4113A3CA0060CA41800E2F7DD85454DBFF7BF76569B15273D966EC9423529E PUSH32 0x141E4CB9181B1F812D857720E2BB68EB16DF53747DFE31398686B42BC0630F04 DUP5 PUSH2 0x9B JUMP JUMPDEST PUSH2 0x47B PUSH2 0x120 DUP9 ADD CALLDATALOAD PUSH32 0x9473771DE3DE2FAFC29DF657F2F79F90F33A4EDC0389E9F830C71A87CA029B4 PUSH32 0x10F4441B7D14C61AA476D77F73F61555E0A8C574D67E2FDC1D99821EA7BA0457 DUP5 PUSH2 0x9B JUMP JUMPDEST PUSH2 0x4CC PUSH2 0x140 DUP9 ADD CALLDATALOAD PUSH32 0x11103389E8F654811188B4569F3946B4F6BD14184A5F54AE3846C84E1985C9B7 PUSH32 0x232EFA5162E7C38CE70EA95A5A2C6DCD5B25710D35BBD074E47F4FAF0C4628EB DUP5 PUSH2 0x9B JUMP JUMPDEST PUSH2 0x51C PUSH2 0x160 DUP9 ADD CALLDATALOAD PUSH32 0x7B876DE0FE18C59B2EE7F15FC3305DDDA7E6D9F09D6FE1492839156FED33B09 PUSH31 0xF93AB762AADE147342CA8C3AEB5F05B0EA7B2C6B3BD300F4E44DE8B5AB2EA2 DUP5 PUSH2 0x9B JUMP JUMPDEST PUSH2 0x56D PUSH2 0x180 DUP9 ADD CALLDATALOAD PUSH32 0xD176F357F4FD7C5AD8653E3626576F33658D894267E06A434C54E6E5A258547 PUSH32 0x10CB9EC07F02A842C5E6A23E9CF719734DB059FF468FE964928CA54941E5F5BD DUP5 PUSH2 0x9B JUMP JUMPDEST DUP4 CALLDATALOAD DUP3 MSTORE PUSH32 0x30644E72E131A029B85045B68181585D97816A916871CA8D3C208C16D87CFD47 PUSH1 0x20 DUP6 ADD CALLDATALOAD PUSH32 0x30644E72E131A029B85045B68181585D97816A916871CA8D3C208C16D87CFD47 SUB MOD PUSH1 0x20 DUP4 ADD MSTORE DUP5 CALLDATALOAD PUSH1 0x40 DUP4 ADD MSTORE PUSH1 0x20 DUP6 ADD CALLDATALOAD PUSH1 0x60 DUP4 ADD MSTORE PUSH1 0x40 DUP6 ADD CALLDATALOAD PUSH1 0x80 DUP4 ADD MSTORE PUSH1 0x60 DUP6 ADD CALLDATALOAD PUSH1 0xA0 DUP4 ADD MSTORE PUSH32 0x2D4D9AA7E302D9DF41749D5507949D05DBEA33FBB16C643B22F599A2BE6DF2E2 PUSH1 0xC0 DUP4 ADD MSTORE PUSH32 0x14BEDD503C37CEB061D8EC60209FE345CE89830A19230301F076CAFF004D1926 PUSH1 0xE0 DUP4 ADD MSTORE PUSH32 0x967032FCBF776D1AFC985F88877F182D38480A653F2DECAA9794CBC3BF3060C PUSH2 0x100 DUP4 ADD MSTORE PUSH32 0xE187847AD4C798374D0D6732BF501847DD68BC0E071241E0213BC7FC13DB7AB PUSH2 0x120 DUP4 ADD MSTORE PUSH32 0x304CFBD1E08A704A99F5E847D93F8C3CAAFDDEC46B7A0D379DA69A4D112346A7 PUSH2 0x140 DUP4 ADD MSTORE PUSH32 0x1739C1B1A457A8C7313123D24D2F9192F896B7C63EEA05A9D57F06547AD0CEC8 PUSH2 0x160 DUP4 ADD MSTORE PUSH1 0x0 DUP9 ADD MLOAD PUSH2 0x180 DUP4 ADD MSTORE PUSH1 0x20 PUSH1 0x0 ADD DUP9 ADD MLOAD PUSH2 0x1A0 DUP4 ADD MSTORE PUSH32 0x198E9393920D483A7260BFB731FB5D25F1AA493335A9E71297E485B7AEF312C2 PUSH2 0x1C0 DUP4 ADD MSTORE PUSH32 0x1800DEEF121F1E76426A00665E5C4479674322D4F75EDADD46DEBD5CD992F6ED PUSH2 0x1E0 DUP4 ADD MSTORE PUSH32 0x90689D0585FF075EC9E99AD690C3395BC4B313370B38EF355ACDADCD122975B PUSH2 0x200 DUP4 ADD MSTORE PUSH32 0x12C85EA5DB8C6DEB4AAB71808DCB408FE3D1E7690C43D37B4CE6CC0166FA7DAA PUSH2 0x220 DUP4 ADD MSTORE DUP6 CALLDATALOAD PUSH2 0x240 DUP4 ADD MSTORE PUSH1 0x20 DUP7 ADD CALLDATALOAD PUSH2 0x260 DUP4 ADD MSTORE PUSH32 0x278D11A01B3D377539844C603CE14E3291B1904C85BF818452FC0D451C4A8033 PUSH2 0x280 DUP4 ADD MSTORE PUSH32 0x19957888FCCF512C9817D4430DCCFCD18D9E1BD499B80A5CDACC0DE2EEB10613 PUSH2 0x2A0 DUP4 ADD MSTORE PUSH32 0x2788B2DCA558FA0AAD77E74EAEB25175A589E89DC1B68D6325E9B4B4121ECEB0 PUSH2 0x2C0 DUP4 ADD MSTORE PUSH32 0x1C2B1883868E36394FD996738321EF13D0F862D60E11FBEA972DA5BD4C08AF8 PUSH2 0x2E0 DUP4 ADD MSTORE PUSH1 0x20 DUP3 PUSH2 0x300 DUP5 PUSH1 0x8 PUSH2 0x7D0 GAS SUB STATICCALL DUP3 MLOAD DUP2 AND SWAP4 POP POP POP POP SWAP6 SWAP5 POP POP POP POP POP JUMP JUMPDEST PUSH1 0x40 MLOAD PUSH2 0x380 DUP2 ADD PUSH1 0x40 MSTORE PUSH2 0x869 PUSH1 0x0 DUP5 ADD CALLDATALOAD PUSH2 0x67 JUMP JUMPDEST PUSH2 0x876 PUSH1 0x20 DUP5 ADD CALLDATALOAD PUSH2 0x67 JUMP JUMPDEST PUSH2 0x883 PUSH1 0x40 DUP5 ADD CALLDATALOAD PUSH2 0x67 JUMP JUMPDEST PUSH2 0x890 PUSH1 0x60 DUP5 ADD CALLDATALOAD PUSH2 0x67 JUMP JUMPDEST PUSH2 0x89D PUSH1 0x80 DUP5 ADD CALLDATALOAD PUSH2 0x67 JUMP JUMPDEST PUSH2 0x8AA PUSH1 0xA0 DUP5 ADD CALLDATALOAD PUSH2 0x67 JUMP JUMPDEST PUSH2 0x8B7 PUSH1 0xC0 DUP5 ADD CALLDATALOAD PUSH2 0x67 JUMP JUMPDEST PUSH2 0x8C4 PUSH1 0xE0 DUP5 ADD CALLDATALOAD PUSH2 0x67 JUMP JUMPDEST PUSH2 0x8D2 PUSH2 0x100 DUP5 ADD CALLDATALOAD PUSH2 0x67 JUMP JUMPDEST PUSH2 0x8E0 PUSH2 0x120 DUP5 ADD CALLDATALOAD PUSH2 0x67 JUMP JUMPDEST PUSH2 0x8EE PUSH2 0x140 DUP5 ADD CALLDATALOAD PUSH2 0x67 JUMP JUMPDEST PUSH2 0x8FC PUSH2 0x160 DUP5 ADD CALLDATALOAD PUSH2 0x67 JUMP JUMPDEST PUSH2 0x90A PUSH2 0x180 DUP5 ADD CALLDATALOAD PUSH2 0x67 JUMP JUMPDEST PUSH2 0x918 PUSH2 0x1A0 DUP5 ADD CALLDATALOAD PUSH2 0x67 JUMP JUMPDEST PUSH2 0x925 DUP2 DUP5 DUP7 DUP9 DUP11 PUSH2 0x106 JUMP JUMPDEST DUP1 PUSH1 0x0 MSTORE PUSH1 0x20 PUSH1 0x0 RETURN JUMPDEST PUSH1 0x0 DUP1 REVERT JUMPDEST PUSH1 0x0 DUP1 REVERT JUMPDEST PUSH1 0x0 DUP2 SWAP1 POP DUP3 PUSH1 0x20 PUSH1 0x2 MUL DUP3 ADD GT ISZERO PUSH2 0x955 JUMPI PUSH2 0x954 PUSH2 0x934 JUMP JUMPDEST JUMPDEST SWAP3 SWAP2 POP POP JUMP JUMPDEST PUSH1 0x0 DUP2 SWAP1 POP DUP3 PUSH1 0x40 PUSH1 0x2 MUL DUP3 ADD GT ISZERO PUSH2 0x977 JUMPI PUSH2 0x976 PUSH2 0x934 JUMP JUMPDEST JUMPDEST SWAP3 SWAP2 POP POP JUMP JUMPDEST PUSH1 0x0 DUP2 SWAP1 POP DUP3 PUSH1 0x20 PUSH1 0xD MUL DUP3 ADD GT ISZERO PUSH2 0x999 JUMPI PUSH2 0x998 PUSH2 0x934 JUMP JUMPDEST JUMPDEST SWAP3 SWAP2 POP POP JUMP JUMPDEST PUSH1 0x0 DUP1 PUSH1 0x0 DUP1 PUSH2 0x2A0 DUP6 DUP8 SUB SLT ISZERO PUSH2 0x9BA JUMPI PUSH2 0x9B9 PUSH2 0x92F JUMP JUMPDEST JUMPDEST PUSH1 0x0 PUSH2 0x9C8 DUP8 DUP3 DUP9 ADD PUSH2 0x939 JUMP JUMPDEST SWAP5 POP POP PUSH1 0x40 PUSH2 0x9D9 DUP8 DUP3 DUP9 ADD PUSH2 0x95B JUMP JUMPDEST SWAP4 POP POP PUSH1 0xC0 PUSH2 0x9EA DUP8 DUP3 DUP9 ADD PUSH2 0x939 JUMP JUMPDEST SWAP3 POP POP PUSH2 0x100 PUSH2 0x9FC DUP8 DUP3 DUP9 ADD PUSH2 0x97D JUMP JUMPDEST SWAP2 POP POP SWAP3 SWAP6 SWAP2 SWAP5 POP SWAP3 POP JUMP JUMPDEST PUSH1 0x0 DUP2 ISZERO ISZERO SWAP1 POP SWAP2 SWAP1 POP JUMP JUMPDEST PUSH2 0xA1D DUP2 PUSH2 0xA08 JUMP JUMPDEST DUP3 MSTORE POP POP JUMP JUMPDEST PUSH1 0x0 PUSH1 0x20 DUP3 ADD SWAP1 POP PUSH2 0xA38 PUSH1 0x0 DUP4 ADD DUP5 PUSH2 0xA14 JUMP JUMPDEST SWAP3 SWAP2 POP POP JUMP INVALID LOG2 PUSH5 0x6970667358 0x22 SLT KECCAK256 DUP6 0xEE 0xBE 0x4D 0xB0 SWAP1 0x26 PUSH12 0xA6BA0EB35BA4E51FE1BDDCFA LT JUMPI PUSH17 0xD62DC1B3E4E3A6769764736F6C63430008 XOR STOP CALLER "
        },
        "methodIdentifiers": {
          "verifyProof(uint256[2],uint256[2][2],uint256[2],uint256[13])": "f143a75e"
        }
      }
    }
  }
}