{
  "_format": "hh-sol-artifact-1",
  "contractName": "Groth16Verifier",
  "sourceName": "contracts/Groth16Verifier.sol",
  "abi": [
    {
      "inputs": [
        {
          "internalType": "uint256[2]",
          "name": "_pA",
          "type": "uint256[2]"
        },
        {
          "internalType": "uint256[2][2]",
          "name": "_pB",
          "type": "uint256[2][2]"
        },
        {
          "internalType": "uint256[2]",
          "name": "_pC",
          "type": "uint256[2]"
        },
        {
          "internalType": "uint256[31]",
          "name": "_pubSignals",
          "type": "uint256[31]"
        }
      ],
      "name": "verifyProof",
      "outputs": [
        {
          "internalType": "bool",
          "name": "",
          "type": "bool"
        }
      ],
      "stateMutability": "view",
      "type": "function"
    }
  ],
  "bytecode": "0x608060405234801561001057600080fd5b50611122806100206000396000f3fe608060405234801561001057600080fd5b506004361061002b5760003560e01c806344a173dd14610030575b600080fd5b61004a6004803603810190610045919061104d565b610060565b60405161005791906110d1565b60405180910390f35b6000610e03565b7f30644e72e131a029b85045b68181585d97816a916871ca8d3c208c16d87cfd478110610098576000805260206000f35b50565b600060405183815284602082015285604082015260408160608360076107d05a03fa9150816100ce576000805260206000f35b825160408201526020830151606082015260408360808360066107d05a03fa9150816100fe576000805260206000f35b505050505050565b600060808601600087017f1792c1cdb7d7b9cbfabd7bb612d680d08324bd5765d8ccd0c334c19f773be40881527f0b29905dd0d0f5a8033660d48668d5f47e771c47557ded4d4520174fe3f32a0460208201526101a960008801357f2cc1ceb1ba81907ea54cb2bd8134ba7fb95e7a313898a05c6da214037ef396c17f1781492d9371364ddb5b4bfd224be067a586be2c5400f17fa4d107cc5e0a01e18461009b565b6101f960208801357f21266bad08a7408d4e34b9e5dead2d4481b097d032e54f4a38405290893e6acf7f01f223222b43eac8c83162bf3a50800d9526df33dea27211ee820dbf685f74388461009b565b61024960408801357f2ae39ba755f176da02574b15117d599c53a5cffca3d9da7df30aa219d342276c7f1dab037ade400773d27e82a4c38821e593123bd186015f3d82f18a158ce0928b8461009b565b61029960608801357f0b0e6bdf8c6224957d7a3ee0b1d8afdc95e13623b542a7bf63fc3cb286fb23cf7f12f8cec4ee4eb22280ec9148c9616be88d22c766a1f24d18c9d6f2f324bdaf2a8461009b565b6102e960808801357f2c8182108bb6aa8ad8d770c805c55044f37d2e640dbcb8b4ddfecfe96be128fc7f05da3ad1f189b1e8beebd71991084962aba6fff6904245a4e7d20c160841afff8461009b565b61033960a08801357f16b9b4d0349c3287de57387a9d9f9bac708124d10ccf2352ffc25d56738481357f0c945e20e55bd545669a3b282f8df78f00c1a5cf042b11a22e0427bf94c6e6778461009b565b61038960c08801357f135bf03b677376393ce1d986530b7e145b0d2078cefc77aa2a140b712d4b1c0e7f2e001f5db79d606ba459f06a9ad2e0e7545fe829d7cd0a6b87afe53f02f21f6a8461009b565b6103d960e08801357f01b6bc8d8e8fe60bbc76bf48b7c01c2ff4834f72831c68325b45bf2e8af5e3a07f182a7f126fcbb5c79efaa4f9b28391e56156ead4312c3b98a87c586c949a773c8461009b565b61042a6101008801357f0574a07ee8153c4310433f238cfed7ac765bef4d47aaacd19a66614a4ed051d57f1736a6ecf76bfc0cd68eab44b9224454daf089daa7bc48701765498180dc28e98461009b565b61047b6101208801357f05899bc92108686070a30db9fda8e6ad40d268106023b83226bc221232b5600a7f1937bd4c98d09ab460137b1e3eb25136178e868dd9a9b97d4d3e2c3c515bcc488461009b565b6104cc6101408801357f02997f8e6b7e20a355e630ff3c9d9aa8d717d9ffaadc91d187688b6adef975f57f0c64182e7438256bc3e8f885022a4e7f22f97a337ce0e43bdd369f0d32b82edf8461009b565b61051d6101608801357f162625392fe67e71fb3f7e5f047accd3f7d998dc786e2d1a8801066090cb4da87f1ee5494d13497b411dca48dc61647aca85b5627b16c2926ad04dfed6c2bf076c8461009b565b61056e6101808801357f1d2202554b2fc4cfa13992e572e4c37b48eba85a032e9c6d1e6aaee0cad6ddb67f181d9f52be6bc231099e170b11baa5eaf54e3793080284245f6ab28524d3c1028461009b565b6105bf6101a08801357f017073b81032cdbbd0e2f05caadb5b643dbc6eecb65a9cc5ed8ca8ae19e5758e7f192e21d636d2b0e69d21f60ebe0326c266b971cf8f451722f42ffa78260e6b658461009b565b6106106101c08801357f235b12695231c39ffd5320110950d66b209dd91193a3690240ef1f69458d4dfe7f29c93df7d22114fe90b8cb9032e65872858fe010a667833c17969232a5aa2bab8461009b565b6106616101e08801357f1fe11296d6ace8fa8a952f7d19f684b4a90d81371a053f0d547114056a684d157f29510901fb95be1266b20f685e892465ac453940be292ead1b60337d9a4f5e028461009b565b6106b26102008801357f185a48af9e9c772ab674142c7fa83b7e3d69c8fbc5e4842fdb34b40ddb9bdbfd7f25a8001cf8d8c47b3ccb3691557cd90955d1d35c31ca4492f3a3d6ded1e8e7008461009b565b6107036102208801357f054f9e98636c5f8b0dd115bd5e9a8e7d26b7fdb70e1ce2970e666ced901ca3f67f0ed2742b66b2f3be6db07f8d91718ce70a4f12208d9110409ec6ae8e844b2c2f8461009b565b6107546102408801357f2460594df0ac17e13de72a155ce37926d11c2df753d8464d6e5434e8fb2673ce7f05b70a27edac1565d189c465609ece3330dacb28e9296945a378f07c3d5068918461009b565b6107a56102608801357f2b1b6f37786ff3bcbeeadb7261681942689860d31e2eb036ecb7e0be0762ba2d7f0c81afc85cda2e6c2768763d4e86a2c65a0f1a0398052f1162d219a9fbd951a58461009b565b6107f66102808801357f14329ee35eac92445adbffbcd21ef52f6b08f95d5903c8416b9d86286ca367e47f074f034ae26dbcdae0812ee19acfcbf71af0972f94925bb60ad255f20dfb343e8461009b565b6108476102a08801357f2ddc86ecfd1a9eb719400c86f7878d365a62a007a84a404151c396867f3cd4117f1782e9f1abcfd51b09c6ec9236ba5fb10b1ab7c58f5082f2d9f9d3f01e2514438461009b565b6108986102c08801357f1c3fdb7450bd378b4d49032e76dd27e340db058a410d392b3ec442ba436ce2197f22f0b651e4e93b2b6152b880a9de70bf1c3880b647fcf2fcf087924b5f1a98ed8461009b565b6108e96102e08801357f1ac3a2be4cd16bd266cbdb889e64863427532722d515c4f31d9e0899d81f949f7f2ebb48cebc3a6de37b565bcee6511bd84286ff4b2340db353ffaf3ea8d9c119d8461009b565b61093a6103008801357f1ea6ae2414932852cae69c894aad5b69cda9d8b17b403e040ecd5cebcd52ea507f0df46830201194aede232a08f8a01eb9f06ff7e1563ac516b3b08dc49655323a8461009b565b61098b6103208801357f2795ec15e4ddf12371e8e50255dcc6e35e524335a44a9031f1681343a39c65a17f0ef21713feacaf57efa9e876398e9dbc4ea4c5fe6694d33316a42d9266072aaf8461009b565b6109db6103408801357f0d0573a716452dc886242d855346c00bccee63c1e6c00671cae29d10169ecd517e4847f6852c5e45bb8c42a82d3f5f2427b92daee679d51791697d32c216869a8461009b565b610a2c6103608801357f2493d396f14de021974d20e07dfcdc0d2433d214de62076372f1a495425f4ff37f1e9d330c8d9924d0772f91d071c311c81f008c740dab23dbc8d08e1f9d8919df8461009b565b610a7d6103808801357f0c0386cb6f2bc9d9d220d20255d85867eb89e78d6596030e40b8fa4ee9f2dc417f1006fe7bf544d25e566e73a8a423bd0b6078511977f716d98f15ad30bbf00ec18461009b565b610ace6103a08801357f0d985e42873dcddf1a82af0b8cb65a2ab1cf7e47b665970b8ec02609c2c6f2907f305a57676599600fe2393dfe6f6e89e0236a39cced0d419d8aeed37efd91640f8461009b565b610b1f6103c08801357f2fe45d8a59fa370b7c451989dd48fba2dce149e076dfc3817c0e868837a6d22d7f1bac0a44bbb0c3e03bf12d61861cee152e56f52b9ab435a0885bc75b56d0dad78461009b565b833582527f30644e72e131a029b85045b68181585d97816a916871ca8d3c208c16d87cfd4760208501357f30644e72e131a029b85045b68181585d97816a916871ca8d3c208c16d87cfd4703066020830152843560408301526020850135606083015260408501356080830152606085013560a08301527f2d4d9aa7e302d9df41749d5507949d05dbea33fbb16c643b22f599a2be6df2e260c08301527f14bedd503c37ceb061d8ec60209fe345ce89830a19230301f076caff004d192660e08301527f0967032fcbf776d1afc985f88877f182d38480a653f2decaa9794cbc3bf3060c6101008301527f0e187847ad4c798374d0d6732bf501847dd68bc0e071241e0213bc7fc13db7ab6101208301527f304cfbd1e08a704a99f5e847d93f8c3caafddec46b7a0d379da69a4d112346a76101408301527f1739c1b1a457a8c7313123d24d2f9192f896b7c63eea05a9d57f06547ad0cec8610160830152600088015161018083015260206000018801516101a08301527f198e9393920d483a7260bfb731fb5d25f1aa493335a9e71297e485b7aef312c26101c08301527f1800deef121f1e76426a00665e5c4479674322d4f75edadd46debd5cd992f6ed6101e08301527f090689d0585ff075ec9e99ad690c3395bc4b313370b38ef355acdadcd122975b6102008301527f12c85ea5db8c6deb4aab71808dcb408fe3d1e7690c43d37b4ce6cc0166fa7daa610220830152853561024083015260208601356102608301527f180cce6cae23bdaa52630c1e3e722456002237dfad3da2803a73185e3be24f406102808301527f010babc709f9fdf2a197d20ec5d2ed1876a2e8a088fee40726b61d79386890636102a08301527f16ca3fdd519c864408722cd25f90df3e78694074ee7a1ed581af2a10032fd7b36102c08301527f0d4274f852b0c1aad2f63a4743e5d232a864e183b7c4ace91fc33a44d557ed776102e08301526020826103008460086107d05a03fa82518116935050505095945050505050565b6040516103808101604052610e1b6000840135610067565b610e286020840135610067565b610e356040840135610067565b610e426060840135610067565b610e4f6080840135610067565b610e5c60a0840135610067565b610e6960c0840135610067565b610e7660e0840135610067565b610e84610100840135610067565b610e92610120840135610067565b610ea0610140840135610067565b610eae610160840135610067565b610ebc610180840135610067565b610eca6101a0840135610067565b610ed86101c0840135610067565b610ee66101e0840135610067565b610ef4610200840135610067565b610f02610220840135610067565b610f10610240840135610067565b610f1e610260840135610067565b610f2c610280840135610067565b610f3a6102a0840135610067565b610f486102c0840135610067565b610f566102e0840135610067565b610f64610300840135610067565b610f72610320840135610067565b610f80610340840135610067565b610f8e610360840135610067565b610f9c610380840135610067565b610faa6103a0840135610067565b610fb86103c0840135610067565b610fc66103e0840135610067565b610fd3818486888a610106565b8060005260206000f35b600080fd5b600080fd5b60008190508260206002028201111561100357611002610fe2565b5b92915050565b60008190508260406002028201111561102557611024610fe2565b5b92915050565b6000819050826020601f028201111561104757611046610fe2565b5b92915050565b6000806000806104e0858703121561106857611067610fdd565b5b600061107687828801610fe7565b945050604061108787828801611009565b93505060c061109887828801610fe7565b9250506101006110aa8782880161102b565b91505092959194509250565b60008115159050919050565b6110cb816110b6565b82525050565b60006020820190506110e660008301846110c2565b9291505056fea2646970667358221220d0ee2d10797190b420555f236c341ed733d11d8a4d22d49fa626057381a6704164736f6c63430008180033",
  "linkReferences": {},
  "deployedLinkReferences": {}
}