{
    "_format": "hh-sol-artifact-1",
    "contractName": "PayCommitment",
    "sourceName": "contracts/PayCommitment.sol",
    "abi": [
        {
            "inputs": [
                {
                    "internalType": "address",
                    "name": "_tokenAddress",
                    "type": "address"
                },
                {
                    "internalType": "address",
                    "name": "_groth16VerifierAddress",
                    "type": "address"
                }
            ],
            "stateMutability": "nonpayable",
            "type": "constructor"
        },
        {
            "anonymous": false,
            "inputs": [
                {
                    "indexed": false,
                    "internalType": "address",
                    "name": "receipient",
                    "type": "address"
                },
                {
                    "indexed": false,
                    "internalType": "uint256",
                    "name": "amount",
                    "type": "uint256"
                },
                {
                    "indexed": false,
                    "internalType": "bytes32",
                    "name": "commitment",
                    "type": "bytes32"
                },
                {
                    "indexed": false,
                    "internalType": "bytes32",
                    "name": "nullifierHash",
                    "type": "bytes32"
                }
            ],
            "name": "LogClaim",
            "type": "event"
        },
        {
            "anonymous": false,
            "inputs": [
                {
                    "indexed": false,
                    "internalType": "address",
                    "name": "depositor",
                    "type": "address"
                },
                {
                    "indexed": false,
                    "internalType": "uint256",
                    "name": "amount",
                    "type": "uint256"
                },
                {
                    "indexed": false,
                    "internalType": "bytes32",
                    "name": "commitment",
                    "type": "bytes32"
                }
            ],
            "name": "LogDeposit",
            "type": "event"
        },
        {
            "inputs": [
                {
                    "internalType": "uint256",
                    "name": "_amount",
                    "type": "uint256"
                },
                {
                    "internalType": "bytes32",
                    "name": "_commitment",
                    "type": "bytes32"
                }
            ],
            "name": "depositERC20",
            "outputs": [],
            "stateMutability": "payable",
            "type": "function"
        },
        {
            "inputs": [],
            "name": "groth16VerifierAddress",
            "outputs": [
                {
                    "internalType": "address",
                    "name": "",
                    "type": "address"
                }
            ],
            "stateMutability": "view",
            "type": "function"
        },
        {
            "inputs": [
                {
                    "internalType": "bytes32",
                    "name": "",
                    "type": "bytes32"
                }
            ],
            "name": "nullifierHashes",
            "outputs": [
                {
                    "internalType": "bool",
                    "name": "",
                    "type": "bool"
                }
            ],
            "stateMutability": "view",
            "type": "function"
        },
        {
            "inputs": [],
            "name": "tokenAddress",
            "outputs": [
                {
                    "internalType": "address",
                    "name": "",
                    "type": "address"
                }
            ],
            "stateMutability": "view",
            "type": "function"
        },
        {
            "inputs": [
                {
                    "internalType": "uint256[2]",
                    "name": "_pA",
                    "type": "uint256[2]"
                },
                {
                    "internalType": "uint256[2][2]",
                    "name": "_pB",
                    "type": "uint256[2][2]"
                },
                {
                    "internalType": "uint256[2]",
                    "name": "_pC",
                    "type": "uint256[2]"
                },
                {
                    "internalType": "uint256[4]",
                    "name": "_pubSignals",
                    "type": "uint256[4]"
                }
            ],
            "name": "withdraw",
            "outputs": [],
            "stateMutability": "nonpayable",
            "type": "function"
        }
    ],
    "bytecode": "0x60806040523480156200001157600080fd5b506040516200177f3803806200177f83398181016040528101906200003791906200012a565b816000806101000a81548173ffffffffffffffffffffffffffffffffffffffff021916908373ffffffffffffffffffffffffffffffffffffffff16021790555080600160006101000a81548173ffffffffffffffffffffffffffffffffffffffff021916908373ffffffffffffffffffffffffffffffffffffffff160217905550505062000171565b600080fd5b600073ffffffffffffffffffffffffffffffffffffffff82169050919050565b6000620000f282620000c5565b9050919050565b6200010481620000e5565b81146200011057600080fd5b50565b6000815190506200012481620000f9565b92915050565b60008060408385031215620001445762000143620000c0565b5b6000620001548582860162000113565b9250506020620001678582860162000113565b9150509250929050565b6115fe80620001816000396000f3fe60806040526004361061004a5760003560e01c806317cc915c1461004f578063551c4fd21461008c5780639d76ea58146100b5578063a0e5f890146100e0578063a4ed8b701461010b575b600080fd5b34801561005b57600080fd5b5061007660048036038101906100719190610aa1565b610127565b6040516100839190610ae9565b60405180910390f35b34801561009857600080fd5b506100b360048036038101906100ae9190610b6f565b610147565b005b3480156100c157600080fd5b506100ca610533565b6040516100d79190610c19565b60405180910390f35b3480156100ec57600080fd5b506100f5610557565b6040516101029190610c19565b60405180910390f35b61012560048036038101906101209190610c6a565b61057d565b005b60036020528060005260406000206000915054906101000a900460ff1681565b600480101561018b576040517f08c379a000000000000000000000000000000000000000000000000000000000815260040161018290610d07565b60405180910390fd5b6000816000600481106101a1576101a0610d27565b5b602002013590506000826001600481106101be576101bd610d27565b5b602002013560001b90506000836002600481106101de576101dd610d27565b5b602002013560001b90506000846003600481106101fe576101fd610d27565b5b602002013590506003600083815260200190815260200160002060009054906101000a900460ff1615610266576040517f08c379a000000000000000000000000000000000000000000000000000000000815260040161025d90610da2565b60405180910390fd5b83600260008581526020019081526020016000205410156102bc576040517f08c379a00000000000000000000000000000000000000000000000000000000081526004016102b390610e34565b60405180910390fd5b600160009054906101000a900473ffffffffffffffffffffffffffffffffffffffff1673ffffffffffffffffffffffffffffffffffffffff16635fe8c13b898989896040518563ffffffff1660e01b815260040161031d9493929190610f3c565b602060405180830381865afa15801561033a573d6000803e3d6000fd5b505050506040513d601f19601f8201168201806040525081019061035e9190610faf565b61039d576040517f08c379a000000000000000000000000000000000000000000000000000000000815260040161039490611028565b60405180910390fd5b60016003600084815260200190815260200160002060006101000a81548160ff0219169083151502179055508360026000858152602001908152602001600020546103e89190611077565b600260008581526020019081526020016000208190555060008060009054906101000a900473ffffffffffffffffffffffffffffffffffffffff169050600063a9059cbb60e01b83876040516024016104429291906110ba565b604051602081830303815290604052907bffffffffffffffffffffffffffffffffffffffffffffffffffffffff19166020820180517bffffffffffffffffffffffffffffffffffffffffffffffffffffffff838183161783525050505090506104ea8160008054906101000a900473ffffffffffffffffffffffffffffffffffffffff1673ffffffffffffffffffffffffffffffffffffffff166108f490919063ffffffff16565b7fc8cb38a40fdf6dd994094b9612d7d15b619a7174baf2760411e6503813c075118387878760405161051f94939291906110f2565b60405180910390a150505050505050505050565b60008054906101000a900473ffffffffffffffffffffffffffffffffffffffff1681565b600160009054906101000a900473ffffffffffffffffffffffffffffffffffffffff1681565b600034146105c0576040517f08c379a00000000000000000000000000000000000000000000000000000000081526004016105b7906111a9565b60405180910390fd5b60008203156108f057600060026000838152602001908152602001600020541461061f576040517f08c379a000000000000000000000000000000000000000000000000000000000815260040161061690611215565b60405180910390fd5b60008060009054906101000a900473ffffffffffffffffffffffffffffffffffffffff16905060008173ffffffffffffffffffffffffffffffffffffffff166370a08231306040518263ffffffff1660e01b81526004016106809190610c19565b602060405180830381865afa15801561069d573d6000803e3d6000fd5b505050506040513d601f19601f820116820180604052508101906106c1919061124a565b905060006323b872dd60e01b3330876040516024016106e293929190611277565b604051602081830303815290604052907bffffffffffffffffffffffffffffffffffffffffffffffffffffffff19166020820180517bffffffffffffffffffffffffffffffffffffffffffffffffffffffff8381831617835250505050905061078a8160008054906101000a900473ffffffffffffffffffffffffffffffffffffffff1673ffffffffffffffffffffffffffffffffffffffff166108f490919063ffffffff16565b60008373ffffffffffffffffffffffffffffffffffffffff166370a08231306040518263ffffffff1660e01b81526004016107c59190610c19565b602060405180830381865afa1580156107e2573d6000803e3d6000fd5b505050506040513d601f19601f82011682018060405250810190610806919061124a565b90508281101561084b576040517f08c379a0000000000000000000000000000000000000000000000000000000008152600401610842906112fa565b60405180910390fd5b8583610857919061131a565b8114610898576040517f08c379a000000000000000000000000000000000000000000000000000000000815260040161088f9061139a565b60405180910390fd5b8560026000878152602001908152602001600020819055507f40a9cb3a9707d3a68091d8ef7ffd4158d01d0b2ad92b1e489abe8312dd5430233387876040516108e3939291906113ba565b60405180910390a1505050505b5050565b6108fd82610a53565b61093c576040517f08c379a00000000000000000000000000000000000000000000000000000000081526004016109339061143d565b60405180910390fd5b6000808373ffffffffffffffffffffffffffffffffffffffff168360405161096491906114ce565b6000604051808303816000865af19150503d80600081146109a1576040519150601f19603f3d011682016040523d82523d6000602084013e6109a6565b606091505b50915091508181906109ee576040517f08c379a00000000000000000000000000000000000000000000000000000000081526004016109e5919061153a565b60405180910390fd5b50600081511115610a4d5780806020019051810190610a0d9190610faf565b610a4c576040517f08c379a0000000000000000000000000000000000000000000000000000000008152600401610a43906115a8565b60405180910390fd5b5b50505050565b600080823b905060008111915050919050565b600080fd5b6000819050919050565b610a7e81610a6b565b8114610a8957600080fd5b50565b600081359050610a9b81610a75565b92915050565b600060208284031215610ab757610ab6610a66565b5b6000610ac584828501610a8c565b91505092915050565b60008115159050919050565b610ae381610ace565b82525050565b6000602082019050610afe6000830184610ada565b92915050565b600080fd5b600081905082602060020282011115610b2557610b24610b04565b5b92915050565b600081905082604060020282011115610b4757610b46610b04565b5b92915050565b600081905082602060040282011115610b6957610b68610b04565b5b92915050565b6000806000806101808587031215610b8a57610b89610a66565b5b6000610b9887828801610b09565b9450506040610ba987828801610b2b565b93505060c0610bba87828801610b09565b925050610100610bcc87828801610b4d565b91505092959194509250565b600073ffffffffffffffffffffffffffffffffffffffff82169050919050565b6000610c0382610bd8565b9050919050565b610c1381610bf8565b82525050565b6000602082019050610c2e6000830184610c0a565b92915050565b6000819050919050565b610c4781610c34565b8114610c5257600080fd5b50565b600081359050610c6481610c3e565b92915050565b60008060408385031215610c8157610c80610a66565b5b6000610c8f85828601610c55565b9250506020610ca085828601610a8c565b9150509250929050565b600082825260208201905092915050565b7f696e636f7272656374207075626c6963496e707574206c656e67746800000000600082015250565b6000610cf1601c83610caa565b9150610cfc82610cbb565b602082019050919050565b60006020820190508181036000830152610d2081610ce4565b9050919050565b7f4e487b7100000000000000000000000000000000000000000000000000000000600052603260045260246000fd5b7f546865206e6f746520686173206265656e20616c7265616479207370656e7400600082015250565b6000610d8c601f83610caa565b9150610d9782610d56565b602082019050919050565b60006020820190508181036000830152610dbb81610d7f565b9050919050565b7f6e6f20656e6f7567682072656d61696e696e6720616d6f756e7420746f20636c60008201527f61696d0000000000000000000000000000000000000000000000000000000000602082015250565b6000610e1e602383610caa565b9150610e2982610dc2565b604082019050919050565b60006020820190508181036000830152610e4d81610e11565b9050919050565b82818337505050565b610e6960408383610e54565b5050565b600060029050919050565b600081905092915050565b6000819050919050565b610e9960408383610e54565b5050565b6000610ea98383610e8d565b60408301905092915050565b600082905092915050565b6000604082019050919050565b610ed681610e6d565b610ee08184610e78565b9250610eeb82610e83565b8060005b83811015610f2457610f018284610eb5565b610f0b8782610e9d565b9650610f1683610ec0565b925050600181019050610eef565b505050505050565b610f3860808383610e54565b5050565b600061018082019050610f526000830187610e5d565b610f5f6040830186610ecd565b610f6c60c0830185610e5d565b610f7a610100830184610f2c565b95945050505050565b610f8c81610ace565b8114610f9757600080fd5b50565b600081519050610fa981610f83565b92915050565b600060208284031215610fc557610fc4610a66565b5b6000610fd384828501610f9a565b91505092915050565b7f67726f7468313620766572696669636174696f6e206661696c00000000000000600082015250565b6000611012601983610caa565b915061101d82610fdc565b602082019050919050565b6000602082019050818103600083015261104181611005565b9050919050565b7f4e487b7100000000000000000000000000000000000000000000000000000000600052601160045260246000fd5b600061108282610c34565b915061108d83610c34565b92508282039050818111156110a5576110a4611048565b5b92915050565b6110b481610c34565b82525050565b60006040820190506110cf6000830185610c0a565b6110dc60208301846110ab565b9392505050565b6110ec81610a6b565b82525050565b60006080820190506111076000830187610c0a565b61111460208301866110ab565b61112160408301856110e3565b61112e60608301846110e3565b95945050505050565b7f4554482076616c756520697320737570706f73656420746f206265203020666f60008201527f72204552433230206465706f7369740000000000000000000000000000000000602082015250565b6000611193602f83610caa565b915061119e82611137565b604082019050919050565b600060208201905081810360008301526111c281611186565b9050919050565b7f636f6d6d69746d656e7420657869737473000000000000000000000000000000600082015250565b60006111ff601183610caa565b915061120a826111c9565b602082019050919050565b6000602082019050818103600083015261122e816111f2565b9050919050565b60008151905061124481610c3e565b92915050565b6000602082840312156112605761125f610a66565b5b600061126e84828501611235565b91505092915050565b600060608201905061128c6000830186610c0a565b6112996020830185610c0a565b6112a660408301846110ab565b949350505050565b7f4f564552464c4f57000000000000000000000000000000000000000000000000600082015250565b60006112e4600883610caa565b91506112ef826112ae565b602082019050919050565b60006020820190508181036000830152611313816112d7565b9050919050565b600061132582610c34565b915061133083610c34565b925082820190508082111561134857611347611048565b5b92915050565b7f494e434f52524543545f414d4f554e545f5452414e5346455252454400000000600082015250565b6000611384601c83610caa565b915061138f8261134e565b602082019050919050565b600060208201905081810360008301526113b381611377565b9050919050565b60006060820190506113cf6000830186610c0a565b6113dc60208301856110ab565b6113e960408301846110e3565b949350505050565b7f4241445f544f4b454e5f41444452455353000000000000000000000000000000600082015250565b6000611427601183610caa565b9150611432826113f1565b602082019050919050565b600060208201905081810360008301526114568161141a565b9050919050565b600081519050919050565b600081905092915050565b60005b83811015611491578082015181840152602081019050611476565b60008484015250505050565b60006114a88261145d565b6114b28185611468565b93506114c2818560208601611473565b80840191505092915050565b60006114da828461149d565b915081905092915050565b600081519050919050565b6000601f19601f8301169050919050565b600061150c826114e5565b6115168185610caa565b9350611526818560208601611473565b61152f816114f0565b840191505092915050565b600060208201905081810360008301526115548184611501565b905092915050565b7f544f4b454e5f4f5045524154494f4e5f4641494c454400000000000000000000600082015250565b6000611592601683610caa565b915061159d8261155c565b602082019050919050565b600060208201905081810360008301526115c181611585565b905091905056fea2646970667358221220b389489fecdbccc95a3bb70e3969c3ae229509a7e293fcfd9f4160611a2b6fe364736f6c63430008180033",
    "linkReferences": {},
    "deployedLinkReferences": {}
}