{
    "_format": "hh-sol-artifact-1",
    "contractName": "TestERC20",
    "sourceName": "contracts/test/TestERC20.sol",
    "abi": [
        {
            "inputs": [
                {
                    "internalType": "uint256",
                    "name": "amountToMint",
                    "type": "uint256"
                }
            ],
            "stateMutability": "nonpayable",
            "type": "constructor"
        },
        {
            "anonymous": false,
            "inputs": [
                {
                    "indexed": true,
                    "internalType": "address",
                    "name": "owner",
                    "type": "address"
                },
                {
                    "indexed": true,
                    "internalType": "address",
                    "name": "spender",
                    "type": "address"
                },
                {
                    "indexed": false,
                    "internalType": "uint256",
                    "name": "value",
                    "type": "uint256"
                }
            ],
            "name": "Approval",
            "type": "event"
        },
        {
            "anonymous": false,
            "inputs": [
                {
                    "indexed": true,
                    "internalType": "address",
                    "name": "from",
                    "type": "address"
                },
                {
                    "indexed": true,
                    "internalType": "address",
                    "name": "to",
                    "type": "address"
                },
                {
                    "indexed": false,
                    "internalType": "uint256",
                    "name": "value",
                    "type": "uint256"
                }
            ],
            "name": "Transfer",
            "type": "event"
        },
        {
            "inputs": [
                {
                    "internalType": "address",
                    "name": "",
                    "type": "address"
                },
                {
                    "internalType": "address",
                    "name": "",
                    "type": "address"
                }
            ],
            "name": "allowance",
            "outputs": [
                {
                    "internalType": "uint256",
                    "name": "",
                    "type": "uint256"
                }
            ],
            "stateMutability": "view",
            "type": "function"
        },
        {
            "inputs": [
                {
                    "internalType": "address",
                    "name": "spender",
                    "type": "address"
                },
                {
                    "internalType": "uint256",
                    "name": "amount",
                    "type": "uint256"
                }
            ],
            "name": "approve",
            "outputs": [
                {
                    "internalType": "bool",
                    "name": "",
                    "type": "bool"
                }
            ],
            "stateMutability": "nonpayable",
            "type": "function"
        },
        {
            "inputs": [
                {
                    "internalType": "address",
                    "name": "",
                    "type": "address"
                }
            ],
            "name": "balanceOf",
            "outputs": [
                {
                    "internalType": "uint256",
                    "name": "",
                    "type": "uint256"
                }
            ],
            "stateMutability": "view",
            "type": "function"
        },
        {
            "inputs": [
                {
                    "internalType": "address",
                    "name": "to",
                    "type": "address"
                },
                {
                    "internalType": "uint256",
                    "name": "amount",
                    "type": "uint256"
                }
            ],
            "name": "mint",
            "outputs": [],
            "stateMutability": "nonpayable",
            "type": "function"
        },
        {
            "inputs": [],
            "name": "totalSupply",
            "outputs": [
                {
                    "internalType": "uint256",
                    "name": "",
                    "type": "uint256"
                }
            ],
            "stateMutability": "view",
            "type": "function"
        },
        {
            "inputs": [
                {
                    "internalType": "address",
                    "name": "recipient",
                    "type": "address"
                },
                {
                    "internalType": "uint256",
                    "name": "amount",
                    "type": "uint256"
                }
            ],
            "name": "transfer",
            "outputs": [
                {
                    "internalType": "bool",
                    "name": "",
                    "type": "bool"
                }
            ],
            "stateMutability": "nonpayable",
            "type": "function"
        },
        {
            "inputs": [
                {
                    "internalType": "address",
                    "name": "sender",
                    "type": "address"
                },
                {
                    "internalType": "address",
                    "name": "recipient",
                    "type": "address"
                },
                {
                    "internalType": "uint256",
                    "name": "amount",
                    "type": "uint256"
                }
            ],
            "name": "transferFrom",
            "outputs": [
                {
                    "internalType": "bool",
                    "name": "",
                    "type": "bool"
                }
            ],
            "stateMutability": "nonpayable",
            "type": "function"
        }
    ],
    "bytecode": "0x60806040523480156200001157600080fd5b506040516200116838038062001168833981810160405281019062000037919062000177565b6200004933826200005760201b60201c565b806000819055505062000296565b600081600160008573ffffffffffffffffffffffffffffffffffffffff1673ffffffffffffffffffffffffffffffffffffffff16815260200190815260200160002054620000a69190620001d8565b905081811015620000ee576040517f08c379a0000000000000000000000000000000000000000000000000000000008152600401620000e59062000274565b60405180910390fd5b80600160008573ffffffffffffffffffffffffffffffffffffffff1673ffffffffffffffffffffffffffffffffffffffff16815260200190815260200160002081905550505050565b600080fd5b6000819050919050565b62000151816200013c565b81146200015d57600080fd5b50565b600081519050620001718162000146565b92915050565b60006020828403121562000190576200018f62000137565b5b6000620001a08482850162000160565b91505092915050565b7f4e487b7100000000000000000000000000000000000000000000000000000000600052601160045260246000fd5b6000620001e5826200013c565b9150620001f2836200013c565b92508282019050808211156200020d576200020c620001a9565b5b92915050565b600082825260208201905092915050565b7f6f766572666c6f772062616c616e636500000000000000000000000000000000600082015250565b60006200025c60108362000213565b9150620002698262000224565b602082019050919050565b600060208201905081810360008301526200028f816200024d565b9050919050565b610ec280620002a66000396000f3fe608060405234801561001057600080fd5b506004361061007d5760003560e01c806340c10f191161005b57806340c10f191461010057806370a082311461011c578063a9059cbb1461014c578063dd62ed3e1461017c5761007d565b8063095ea7b31461008257806318160ddd146100b257806323b872dd146100d0575b600080fd5b61009c600480360381019061009791906109fc565b6101ac565b6040516100a99190610a57565b60405180910390f35b6100ba61029e565b6040516100c79190610a81565b60405180910390f35b6100ea60048036038101906100e59190610a9c565b6102a7565b6040516100f79190610a57565b60405180910390f35b61011a600480360381019061011591906109fc565b610622565b005b61013660048036038101906101319190610aef565b6106fd565b6040516101439190610a81565b60405180910390f35b610166600480360381019061016191906109fc565b610715565b6040516101739190610a57565b60405180910390f35b61019660048036038101906101919190610b1c565b61093e565b6040516101a39190610a81565b60405180910390f35b600081600260003373ffffffffffffffffffffffffffffffffffffffff1673ffffffffffffffffffffffffffffffffffffffff16815260200190815260200160002060008573ffffffffffffffffffffffffffffffffffffffff1673ffffffffffffffffffffffffffffffffffffffff168152602001908152602001600020819055508273ffffffffffffffffffffffffffffffffffffffff163373ffffffffffffffffffffffffffffffffffffffff167f8c5be1e5ebec7d5bd14f71427d1e84f3dd0314c0f7b2291e5b200ac8c7c3b9258460405161028c9190610a81565b60405180910390a36001905092915050565b60008054905090565b600080600260008673ffffffffffffffffffffffffffffffffffffffff1673ffffffffffffffffffffffffffffffffffffffff16815260200190815260200160002060003373ffffffffffffffffffffffffffffffffffffffff1673ffffffffffffffffffffffffffffffffffffffff1681526020019081526020016000205490508281101561036c576040517f08c379a000000000000000000000000000000000000000000000000000000000815260040161036390610bb9565b60405180910390fd5b82816103789190610c08565b600260008773ffffffffffffffffffffffffffffffffffffffff1673ffffffffffffffffffffffffffffffffffffffff16815260200190815260200160002060003373ffffffffffffffffffffffffffffffffffffffff1673ffffffffffffffffffffffffffffffffffffffff168152602001908152602001600020819055506000600160008673ffffffffffffffffffffffffffffffffffffffff1673ffffffffffffffffffffffffffffffffffffffff1681526020019081526020016000205490508084826104499190610c3c565b101561048a576040517f08c379a000000000000000000000000000000000000000000000000000000000815260040161048190610cbc565b60405180910390fd5b83816104969190610c3c565b600160008773ffffffffffffffffffffffffffffffffffffffff1673ffffffffffffffffffffffffffffffffffffffff168152602001908152602001600020819055506000600160008873ffffffffffffffffffffffffffffffffffffffff1673ffffffffffffffffffffffffffffffffffffffff16815260200190815260200160002054905084811015610560576040517f08c379a000000000000000000000000000000000000000000000000000000000815260040161055790610d28565b60405180910390fd5b848161056c9190610c08565b600160008973ffffffffffffffffffffffffffffffffffffffff1673ffffffffffffffffffffffffffffffffffffffff168152602001908152602001600020819055508573ffffffffffffffffffffffffffffffffffffffff168773ffffffffffffffffffffffffffffffffffffffff167fddf252ad1be2c89b69c2b068fc378daa952ba7f163c4a11628f55a4df523b3ef8760405161060c9190610a81565b60405180910390a3600193505050509392505050565b600081600160008573ffffffffffffffffffffffffffffffffffffffff1673ffffffffffffffffffffffffffffffffffffffff1681526020019081526020016000205461066f9190610c3c565b9050818110156106b4576040517f08c379a00000000000000000000000000000000000000000000000000000000081526004016106ab90610d94565b60405180910390fd5b80600160008573ffffffffffffffffffffffffffffffffffffffff1673ffffffffffffffffffffffffffffffffffffffff16815260200190815260200160002081905550505050565b60016020528060005260406000206000915090505481565b600080600160003373ffffffffffffffffffffffffffffffffffffffff1673ffffffffffffffffffffffffffffffffffffffff1681526020019081526020016000205490508281101561079d576040517f08c379a000000000000000000000000000000000000000000000000000000000815260040161079490610e00565b60405180910390fd5b82816107a99190610c08565b600160003373ffffffffffffffffffffffffffffffffffffffff1673ffffffffffffffffffffffffffffffffffffffff168152602001908152602001600020819055506000600160008673ffffffffffffffffffffffffffffffffffffffff1673ffffffffffffffffffffffffffffffffffffffff16815260200190815260200160002054905080848261083d9190610c3c565b101561087e576040517f08c379a000000000000000000000000000000000000000000000000000000000815260040161087590610e6c565b60405180910390fd5b838161088a9190610c3c565b600160008773ffffffffffffffffffffffffffffffffffffffff1673ffffffffffffffffffffffffffffffffffffffff168152602001908152602001600020819055508473ffffffffffffffffffffffffffffffffffffffff163373ffffffffffffffffffffffffffffffffffffffff167fddf252ad1be2c89b69c2b068fc378daa952ba7f163c4a11628f55a4df523b3ef8660405161092a9190610a81565b60405180910390a360019250505092915050565b6002602052816000526040600020602052806000526040600020600091509150505481565b600080fd5b600073ffffffffffffffffffffffffffffffffffffffff82169050919050565b600061099382610968565b9050919050565b6109a381610988565b81146109ae57600080fd5b50565b6000813590506109c08161099a565b92915050565b6000819050919050565b6109d9816109c6565b81146109e457600080fd5b50565b6000813590506109f6816109d0565b92915050565b60008060408385031215610a1357610a12610963565b5b6000610a21858286016109b1565b9250506020610a32858286016109e7565b9150509250929050565b60008115159050919050565b610a5181610a3c565b82525050565b6000602082019050610a6c6000830184610a48565b92915050565b610a7b816109c6565b82525050565b6000602082019050610a966000830184610a72565b92915050565b600080600060608486031215610ab557610ab4610963565b5b6000610ac3868287016109b1565b9350506020610ad4868287016109b1565b9250506040610ae5868287016109e7565b9150509250925092565b600060208284031215610b0557610b04610963565b5b6000610b13848285016109b1565b91505092915050565b60008060408385031215610b3357610b32610963565b5b6000610b41858286016109b1565b9250506020610b52858286016109b1565b9150509250929050565b600082825260208201905092915050565b7f616c6c6f77616e636520696e73756666696369656e7400000000000000000000600082015250565b6000610ba3601683610b5c565b9150610bae82610b6d565b602082019050919050565b60006020820190508181036000830152610bd281610b96565b9050919050565b7f4e487b7100000000000000000000000000000000000000000000000000000000600052601160045260246000fd5b6000610c13826109c6565b9150610c1e836109c6565b9250828203905081811115610c3657610c35610bd9565b5b92915050565b6000610c47826109c6565b9150610c52836109c6565b9250828201905080821115610c6a57610c69610bd9565b5b92915050565b7f6f766572666c6f772062616c616e636520726563697069656e74000000000000600082015250565b6000610ca6601a83610b5c565b9150610cb182610c70565b602082019050919050565b60006020820190508181036000830152610cd581610c99565b9050919050565b7f756e646572666c6f772062616c616e63652073656e6465720000000000000000600082015250565b6000610d12601883610b5c565b9150610d1d82610cdc565b602082019050919050565b60006020820190508181036000830152610d4181610d05565b9050919050565b7f6f766572666c6f772062616c616e636500000000000000000000000000000000600082015250565b6000610d7e601083610b5c565b9150610d8982610d48565b602082019050919050565b60006020820190508181036000830152610dad81610d71565b9050919050565b7f696e73756666696369656e742062616c616e6365000000000000000000000000600082015250565b6000610dea601483610b5c565b9150610df582610db4565b602082019050919050565b60006020820190508181036000830152610e1981610ddd565b9050919050565b7f726563697069656e742062616c616e6365206f766572666c6f77000000000000600082015250565b6000610e56601a83610b5c565b9150610e6182610e20565b602082019050919050565b60006020820190508181036000830152610e8581610e49565b905091905056fea26469706673582212205c8b050e04546228705e9dd3f0843739ceed91fb71fc13aab430f8c56b98630f64736f6c63430008180033",
    "linkReferences": {},
    "deployedLinkReferences": {}
}